:020000040000FA
:100000000C9451030C9479030C9479030C947903A8
:100010000C9479030C9479030C9479030C94790370
:100020000C9479030C9479030C9475100C94E410DF
:100030000C9479030C9479030C9479030C94790350
:100040000C9479030C9479030C9479030C94790340
:100050000C9479030C9479030C9479030C94161383
:100060000C9479030C9479030C9479030C94790320
:100070000C9479030C9479030C9479030C94790310
:100080000C947F140C9479030C9479030C947903E9
:100090000C9460130C9479030C9479030C947903F9
:1000A0000C9479030C9479030C94790300000000FC
:1000B000003E5B4F5B3E3E6B4F6B3E1C3E7C3E1CEE
:1000C000183C7E3C181C577D571C1C5E7F5E1C0034
:1000D000183C1800FFE7C3E7FF0018241800FFE7EB
:1000E000DBE7FF30483A060E2629792926407F05AE
:1000F0000507407F05253F5A3CE73C5A7F3E1C1CC4
:1001000008081C1C3E7F14227F22145F5F005F5F83
:1001100006097F017F006689956A6060606060946F
:10012000A2FFA29408047E040810207E2010080874
:100130002A1C08081C2A08081E101010100C1E0C7F
:100140001E0C30383E3830060E3E0E060000000011
:100150000000005F00000007000700147F147F14F8
:10016000242A7F2A1223130864623649562050003D
:1001700008070300001C2241000041221C002A1C29
:100180007F1C2A08083E0808008070300008080814
:100190000808000060600020100804023E51494534
:1001A0003E00427F400072494949462141494D3352
:1001B0001814127F1027454545393C4A49493141B9
:1001C000211109073649494936464949291E000087
:1001D00014000000403400000008142241141414DC
:1001E0001414004122140802015909063E415D59C8
:1001F0004E7C1211127C7F494949363E41414122D1
:100200007F4141413E7F494949417F090909013EFA
:10021000414151737F0808087F00417F4100204021
:10022000413F017F081422417F404040407F021C33
:10023000027F7F0408107F3E4141413E7F0909094A
:10024000063E4151215E7F09192946264949493216
:1002500003017F01033F4040403F1F2040201F3FDC
:100260004038403F63140814630304780403615961
:10027000494D43007F4141410204081020004141A3
:10028000417F04020102044040404040000307084F
:100290000020545478407F2844443838444444284B
:1002A000384444287F385454541800087E090218F2
:1002B000A4A49C787F0804047800447D400020407A
:1002C000403D007F1028440000417F40007C0478BE
:1002D00004787C080404783844444438FC18242406
:1002E0001818242418FC7C08040408485454542486
:1002F00004043F44243C4040207C1C2040201C3C03
:100300004030403C44281028444C9090907C4464F9
:10031000544C44000836410000007700000041368C
:10032000080002010204023C2623263C1EA1A16112
:10033000123A4040207A3854545559215555794144
:100340002154547841215554784020545579400C1B
:100350001E527212395555555939545454593955FC
:100360005454580000457C410002457D420001453F
:100370007C40F0292429F0F0282528F07C545545AC
:10038000002054547C547C0A097F4932494949323F
:100390003248484832324A4848303A4141217A3A54
:1003A00042402078009DA0A07D39444444393D401E
:1003B00040403D3C24FF2424487E4943662B2FFCCB
:1003C0002F2BFF0929F620C0887E09032054547979
:1003D000410000447D413048484A32384040227A4A
:1003E000007A0A0A727D0D19317D2629292F2826C7
:1003F0002929292630484D402038080808080808CF
:100400000808382F10C8ACBA2F102834FA00007B27
:10041000000008142A142222142A1408950022002D
:1004200095AA005500AAAA55AA55AA000000FF00E7
:10043000101010FF00141414FF001010FF00FF1024
:1004400010F010F0141414FC001414F700FF000056
:10045000FF00FF1414F404FC141417101F10101FD5
:10046000101F1414141F00101010F0000000001FC3
:10047000101010101F10101010F010000000FF10CE
:100480001010101010101010FF10000000FF1400CA
:1004900000FF00FF00001F10170000FC04F41414FC
:1004A0001710171414F404F40000FF00F7141414C8
:1004B00014141414F700F7141414171410101F1048
:1004C0001F141414F4141010F010F000001F101F6B
:1004D0000000001F14000000FC140000F010F010D9
:1004E00010FF10FF141414FF141010101F00000050
:1004F00000F010FFFFFFFFFFF0F0F0F0F0FFFFFF54
:100500000000000000FFFF0F0F0F0F0F38444438AA
:10051000447C2A2A3E147E02020606027E027E02E5
:1005200063554941633844443C04407E201E200604
:10053000027E020299A5E7A5991C2A492A1C4C7241
:1005400001724C304A4D4D303048784830BC625AC8
:10055000463D3E494949007E0101017E2A2A2A2A58
:100560002A44445F444440514A444040444A514034
:100570000000FF0103E080FF000008086B6B0836F5
:1005800012362436060F090F060000181800000066
:100590001010003040FF0101001F01011E00191D55
:1005A0001712003C3C3C3C0000000000080B00021D
:1005B00002020000090400000102020000052400FC
:1005C000100105240101010424020605240600018E
:1005D0000705810310004009040100020A00000021
:1005E00007050202400000070583024000000403E3
:1005F000090412010002EF0201404123368000018C
:100600000102030141726475696E6F204C4C430016
:1006100041726475626F7900D5F08D14A1C881CFE5
:10062000D9F1AF2000C0A0D921D5F081FFA800A842
:1006300000A83F00000000250028002B002E0031FC
:100640000004040404040304050202020204030279
:10065000020202060606060606040402020204045A
:1006600004080201104080401020408040800802B1
:100670000401804020100201108010204040200022
:1006800000000200090F0000030401000C0000003C
:100690000000000000000000000000000000C9147D
:1006A0000C2011241FBECFEFDAE0DEBFCDBF13E078
:1006B000A0E0B1E0E2EBF9E402C005900D92AA3DA2
:1006C000B107D9F729E0AAEDB3E001C01D92AA381D
:1006D000B207E1F713E0C0E5D3E004C02197FE01C3
:1006E0000E947E23CF34D107C9F70E94FB140C94DB
:1006F000CC240C940000FC019081909528E030E01F
:1007000081E397FF03C0990F982701C0990F2150EB
:100710003109B9F78181892728E030E091E387FF2B
:1007200003C0880F892701C0880F21503109B9F70C
:10073000089524E030E0EBE9F8E0A0E0B0E0BD018E
:1007400080E00E94F6030E94E503BD011296A20F0D
:10075000B31F8217930799F38F5F9F4F21F4AF5F09
:10076000BF40DB0178F00E94BD0640E050919F0839
:100770006091A00880E20E94EA03729A0E94A1069A
:10078000A0E0B0E07CEF0E94BD064A2F50919F0888
:100790005B0F6091A008611D82E00E94EA03832F35
:1007A00071FD822F70FD81910E940204759518F4ED
:1007B0002150304019F01196AA2389F7729A0E94AD
:1007C000A10621153105F9F608950E942D04982FF0
:1007D0000C94330472980E940204862F0E94020433
:1007E000852F0E940204842F0C940204462F5091FE
:1007F0009F08570F6091A008681F83E00E94EA03DA
:100800001EBC08958EBD00008EB50DB407FEFCCF52
:100810000895EBE9F8E0A4E0B0E060E070E080E08B
:100820000E94F6039D01AF0160E00E942804821738
:10083000930751F4D901FA0160E00E942D048193DD
:100840001197D9F761E0F1CF0E943304862F089504
:100850000E942D04982F0C942D040DB407FEFDCF9B
:100860008EB51EBC08950DB407FEFDCF8EB5729AED
:100870000895FC0180919A08882311F13FB7F894FC
:1008800082E08093E9002091F200822F90E0181618
:10089000190614F481E090E0882339F0289844E6A2
:1008A000409399084091F1004083222339F0209130
:1008B000F200211103C02BE62093E8003FBF08950A
:1008C0008FEF9FEF08952FB7F89483E08093E900AE
:1008D0009091E800892F807295FF04C09091F200FA
:1008E00080E4891B2FBF08958091910881110DC06C
:1008F00082E080938D0884E080938E0810929008A7
:1009000010928F0881E0809391088DE898E0089517
:10091000282F30E0F901E158F94F9491F901E05A9C
:10092000F94F84912F5B394FF9012491222309F467
:1009300030C09923E9F091509F30D0F4E92FF0E0D6
:10094000EC55FB4F0C947E23D204D604B304CA04A6
:10095000CE04B804B804B804D904DF04E304E704FF
:10096000ED04B804F104909180009F77909380008B
:10097000E22FF0E0EE0FFF1FED5CF94FA591B4916F
:100980009FB7F894EC91611132C080958E238C93BF
:100990009FBF0895909180009F7DE8CF9091800047
:1009A000977FE4CF94B59F7794BDE2CF94B59F7DB8
:1009B000FBCF909190009F7790939000D9CF90912A
:1009C00090009F7DF9CF90919000977FF5CF909107
:1009D000C0009F779093C000CBCF9091C0009F7DC7
:1009E000F9CF9091C200977F9093C200C1CF8E2B18
:1009F000CECF811105C081E0611106C080E004C046
:100A0000813019F46230D0F3089581E06330E0F76B
:100A1000F5CF0895089540912B0450912C04209116
:100A2000290430912A0442175307B4F49091E80046
:100A30009570E1F39091E80092FD19C08093F10068
:100A400080912B0490912C0401968F739927892B08
:100A500019F48EEF8093E80080912B0490912C0480
:100A6000019690932C0480932B0481E0089580E0FC
:100A70000895DF92EF92FF920F931F93CF93DF932E
:100A8000D82E8A01EB017B01E40EF51ECE15DF05A1
:100A900059F0D7FE12C0FE0184910E940B052196E9
:100AA0008111F4CF0FEF1FEFC801DF91CF911F919C
:100AB0000F91FF90EF90DF9008958881EECF0F9314
:100AC0001F93CF93DF931F92CDB7DEB782E0898368
:100AD00042E450E06CEA75E080E80E9439050E942B
:100AE0007404DC0112960D911C910115110589F019
:100AF000D801ED91FC910280F381E02DBE016F5F82
:100B00007F4FC801099597FD04C0F8010085118544
:100B1000ECCF89810F90DF91CF911F910F910895B4
:100B2000615030F02091F100FC0120830196F8CF54
:100B3000289884E6809399080895AF92BF92CF9247
:100B4000DF92EF92FF920F931F93CF93DF936C018D
:100B50007B018B01040F151FEB015E01AE18BF086E
:100B6000C017D10759F06991D601ED91FC91019020
:100B7000F081E02DC6010995892B79F7C501DF9138
:100B8000CF911F910F91FF90EF90DF90CF90BF908A
:100B9000AF900895CF93DF931F92CDB7DEB76983EF
:100BA000DC01ED91FC910280F381E02D41E050E009
:100BB000BE016F5F7F4F09950F90DF91CF91089530
:100BC00083E08093E9008091F200882319F08AE3A2
:100BD0008093E80008950E94630490E00895CF9305
:100BE000DF931F92CDB7DEB7FC018485958597FD15
:100BF00008C02FEF3FEF358724870F90DF91CF910B
:100C00000895CE0101960E943904019719F4898153
:100C100090E0F3CF8FEF9FEFF0CF0F931F93CF9321
:100C2000DF931F92CDB7DEB78C01FC0184859585DB
:100C300097FF0BC0CE0101960E943904019771F411
:100C4000898190E0F80195878487F80184859585EE
:100C50000F90DF91CF911F910F9108958FEF9FEF2C
:100C6000F1CFFC018485958597FD0BC09FB7F89463
:100C700082E08093E9008091F2009FBF90E00196AE
:100C800008959FB7F89482E08093E9008091F20084
:100C90009FBF90E008958FB18095807F669B8860AC
:100CA0001C9B8460089590E1282F81E061FD84E021
:100CB00060FD880F62FD8295687F969FD0011124A8
:100CC000A20FA95CBB4F0C90082A40FF08260C928B
:100CD000089590913908982329F490913A0898231F
:100CE00081E009F480E00895DF92EF92FF920F9384
:100CF0001F93CF93DF937C01D22E8B01040F111D24
:100D0000EB0177FF02C0D0E0C0E0C801013411055B
:100D100014F080E490E0C817D9075CF480E8E81686
:100D2000F10428F44D2DBE01C7010E9453062196FF
:100D3000ECCFDF91CF911F910F91FF90EF90DF905B
:100D40000895729885E00E94020480E00E940204E7
:100D500080FDFBCF729A0895462F50913104570FB2
:100D600060913204681F83E00E94EA031EBC08956C
:100D700072980E940204729A089586E00C94B80654
:100D8000FC010E945B07319728F068517C4F8F4F20
:100D90009F4FF9CFAB01FC010E945B0764177507F9
:100DA0008E079F07C8F3089585E090E00C94C00675
:100DB0008F929F92AF92BF92CF92DF92EF92FF926B
:100DC0000F931F93CF93DF936C017B018A01809176
:100DD0000B01882309F45AC080919A08882309F4EA
:100DE00055C080912F0480FF05C08091E000826093
:100DF0008093E000E801B12C8AEFA82E93E0892EC1
:100E00002AE3922E209711F4BB20C9F10E946304BB
:100E1000811108C0AA94AA20C9F181E090E00E9443
:100E2000C006F0CF8C171D0611F00CF08C2F9FB769
:100E3000F8948092E9002091E80025FD02C09FBF50
:100E4000E1CF282F30E0C21BD30BF701815020F0F7
:100E500041914093F100FACFE20EF31EBB2021F046
:100E60009092E800B12CEBCF8091E80085FDE7CFB0
:100E70009092E800BB24B394209709F3F3CF5D98D8
:100E800084E680932E04101611063CF081E090E079
:100E9000F6019383828310E000E0C801DF91CF91D7
:100EA0001F910F91FF90EF90DF90CF90BF90AF9088
:100EB0009F908F900895A5E2B4E02FB7F8947D91AC
:100EC0008D919C9166B52FBFA89B05C06F3F18F40C
:100ED0007F5F8F4F9F4F22E0660F771F881F991FFC
:100EE0002A95D1F70895AB01FC010E945B074150A0
:100EF0005109E109F10928F068517C4F8F4F9F4F4C
:100F0000F6CFAB01FC010E945B07641775078E07E3
:100F10009F07C8F30895089508952091FC03260FB4
:100F20003327331F21323105ECF42091E908FC010D
:100F300090E080E0243069F082E00895A091FC0305
:100F40002191AC0144525C4FA40FB52FB11D2C93DD
:100F50000196861798F38091FC03680F6093FC0359
:100F600080E0089581E008951092E90881E080937F
:100F7000E8081092C30861E082E00E94880461E002
:100F800083E00E948804E9EBF0E080818E7F80831B
:100F900080818D7F808388E48093B80085E480938E
:100FA000BC000895CF93DF9391E09093DB038823F7
:100FB000B9F0C091B800D091BA008091BC008A7B92
:100FC0008093BC0060E082E00E94880460E083E0DF
:100FD0000E9488040E94B407D093BA00C093B8005E
:100FE000DF91CF9108958F929F92AF92BF92CF924F
:100FF000DF92EF92FF920F931F93CF93DF93D091E5
:101000001209D13208F0D7C0182FC09111090E94DF
:101010005B076B017C018091E90881116BC082E064
:101020008093E9081093E8088FEF8093E708109207
:10103000E608D093E508A1EFB8E0E5ECF8E080E041
:10104000D81391C01092C4088091C408CC0FC82B4B
:10105000C093C4088091C308813009F088C0109201
:10106000C3080E945B076B017C018091C4088093D8
:10107000BB008091EB089091EC08A091ED08B09135
:10108000EE08892B8A2B8B2BA1F00E945B07009125
:10109000EB081091EC082091ED083091EE086C19E6
:1010A0007D098E099F09061717072807390708F4D5
:1010B00042C08091BC0083FDD8CF85EC8093BC00FA
:1010C0000E945B076B017C018091E908823009F482
:1010D00050C08091E7088F3F09F46FC08091E70806
:1010E000803209F46CC08091E708803309F469C04C
:1010F00084E026C08091EB089091EC08A091ED0867
:10110000B091EE08892B8A2B8B2B09F484CF0E9497
:101110005B078090EB089090EC08A090ED08B090F1
:10112000EE086C197D098E099F0986169706A80698
:10113000B90608F070CF8091EA080E94D20785E0D6
:101140001092F008109212091092EF08DF91CF91DF
:101150001F910F91FF90EF90DF90CF90BF90AF90D5
:101160009F908F9008959D9191938F5F69CF85EEA9
:10117000A5CF8091EB089091EC08A091ED08B0917B
:10118000EE08892B8A2B8B2B09F49ECF0E945B07DC
:101190000091EB081091EC082091ED083091EE08D9
:1011A0006C197D098E099F0906171707280739074B
:1011B00008F08ACFC0CF81E0C3CF80E0C1CF82E00A
:1011C000BFCF83E0BDCFCF93C42FDC0111968D91AB
:1011D0009C91DC01ED91FC910280F381E02D42E0D5
:1011E00050E00995029729F48C2F0E94F30791E0B3
:1011F000811190E0892FCF910895CF93DF93EC0177
:101200008B818823A1F0888191E09093EF088093EF
:1012100011091092F0081092120981E00E94F30760
:1012200091E0811190E0892FDF91CF910895109284
:10123000A2081092A1081092F008109212090E94C0
:10124000B40789E095E090933404809333048AE0F6
:1012500095E0909336048093350481E08B83CE0132
:101260000E94FD08982F8111CECFDDCF0895E09127
:10127000A2088091A108E81730F4F0E0ED55F74F8F
:10128000808190E008958FEF9FEF08959091A208DC
:101290008091A1082FEF3FEF981748F4E92FF0E075
:1012A000ED55F74F208130E09F5F9093A208C90170
:1012B00008958091A1089091A208891B990B089527
:1012C000CF92DF92EF92FF920F931F93CF93DF9312
:1012D0007C01CB018A012091EF08222389F0EB01E8
:1012E0006B01C40ED51ECC15DD0569F06991D701DF
:1012F000ED91FC910190F081E02DC7010995F3CFAC
:10130000642F0E948D07C801DF91CF911F910F912B
:10131000FF90EF90DF90CF900895CF93DF931F92CF
:10132000CDB7DEB769832091EF082223F9F0209131
:101330001209203258F021E030E0FC01338322838F
:1013400090E080E00F90DF91CF9108958091F008B8
:10135000E82FF0E0EF50F74F998190838F5F8093F3
:10136000F0088093120981E090E0ECCF61E0CE01BB
:1013700001960E948D07F7CF6F927F928F929F9276
:10138000AF92BF92CF92DF92EF92FF920F931F9393
:10139000CF93DF936D3089F0E0906108F0906208A0
:1013A0006A30E1F4109264081092630888E0E80E55
:1013B000F11CF0926208E092610881E090E0DF9118
:1013C000CF911F910F91FF90EF90DF90CF90BF9042
:1013D000AF909F908F907F906F900895C62F00914F
:1013E000630810916408D0918C0860910C018D2FD6
:1013F0000E94F904782E60E08D2F0E94F904682E77
:10140000781215C0672D8D2F0E94F904D82E58012F
:10141000E6E0AE0EB11CE801CA15DB05D1F12D2DB9
:1014200048E0B701CE010E9474062196F5CFF5E0A1
:10143000CF9FE0011124C455DF4F5801D12C85E026
:10144000C12CD81629F0CE010196FE01C490EC0102
:10145000912C812C462DC0FC472DF0E8AF16B1042D
:1014600048F4B701680D791D6034710518F4C501A1
:101470000E945306C6948FEF881A980AE8E08E16E9
:10148000910441F7D394FFEFAF1ABF0A86E0D81258
:10149000D6CF0A5F1F4F10936408009363088DCF67
:1014A000DC0130E8439FC0011124A80FB91F50553B
:1014B00030E53CBD5C985EBD20D01FD000C080E10F
:1014C0008EBD1BD01AD019D05C9A30E73CBD80E8A5
:1014D0000E90302D6111372F3C93349134910222BC
:1014E0000EBC8A95A9F709D008D053954A9501F703
:1014F00004D003D030E50DB43CBD089520915F08C1
:101500003091600860910D0185E0689FB001112461
:10151000C9010E946A23892B71F480918A089091F5
:10152000280189130FC091E09093DA03882361F0BA
:10153000815080938A082F5F3F4F3093600820933B
:101540005F080895811102C01092DA039091DA03C6
:101550009111EECF8F5FEDCF20915F083091600841
:1015600060910D0185E0689FB0011124C9010E94BE
:101570006A23892B49F480918A0890912801891760
:1015800050F48F5F80938A082F5F3F4F309360083D
:1015900020935F08089510928A08F6CF3F924F92E9
:1015A0005F926F927F928F929F92AF92BF92CF92F3
:1015B000DF92EF92FF920F931F93CF93DF9300D0B0
:1015C0001F92CDB7DEB73A01862EA7E3B4E0B7018C
:1015D000E02FDD24382E96959695969531E061FDA5
:1015E00034E060FD330F62FD32955FEF539F700171
:1015F000E094F094759567957595679575956795E1
:10160000462F4F3F4CF44095941B20FD440F489FBC
:10161000600C711C8D1C4FEF17FF0BC0300E20FFAC
:1016200002C0000F111F601A710A8D0817FD839404
:10163000EE2750E845030E0EA00DB11D5E1B3516BA
:1016400008F0352E57E0541B591714F4952FD394F6
:1016500050E85319482E552421FD02C0431855085F
:1016600020FF02C0440C551C11245B824A82932E39
:1016700000903104700C00903204801C19C07298E4
:1016800033E03EBD640C751C811CAA24831509F04F
:10169000A3940CD08EBC07D07EBC05D06EBC03D00A
:1016A0001EBC03D00895C8950000C895C89508953C
:1016B000641875088108E3DF41151CF0992371F562
:1016C00064C0A058BF4FC32C20FD0CC06EB51EBC1B
:1016D000699DBC90BF20B128BD92C89500C0CA9436
:1016E000A9F711C06EB51EBC699DB001DEDFEEB476
:1016F0001EBCE99C7001BC90F094BF20B72ABD923B
:10170000C895CA9479F71124A319B1099A9509F4D7
:101710005CC0AA2019F00DB4729AB1DFFD01E05847
:10172000FF4FC32C20FD0EC06EB51EBC699DBC9042
:10173000BE20B028BD92B080BF20B128B192CA941B
:1017400099F716C06EB51EBC699DB001BC90F080C3
:10175000AEDF00C0EEB41EBCE99C0094B020B62AF7
:10176000BD921094F120F72AF1920000CA9451F72B
:101770001124A50FB11D9A9561F6DD2031F1AA2043
:1017800021F00DB4729A7BDFC89520FD0CC06EB5B8
:101790001EBC699DBC90BE20B028BD92C89500C0FB
:1017A0003A94A9F712C06EB51EBC699DB0017DDFE9
:1017B0009EB51EBC999D902DBC909095B922B62ADD
:1017C000BD92C8953A9479F7C8951124729A0DB4D0
:1017D0000F900F900F90DF91CF911F910F91FF907D
:1017E000EF90DF90CF90BF90AF909F908F907F90C1
:1017F0006F905F904F903F9008956F927F928F927D
:10180000AF92CF92DF92EF92FF920F931F93DC0182
:10181000922F2A2DF92FE42F3701802EC114D104E5
:10182000A1F0969596959695A0FC990F949F7001BE
:10183000ED9C700C811CFC9C700C811CFD9C800C30
:10184000EC9C600C711C1124811C7B018D01682DA6
:10185000A301CF010E94CE0A1F910F91FF90EF903C
:10186000DF90CF90AF908F907F906F9008954F92C0
:101870005F926F927F928F92AF92BF92CF92DF92E0
:10188000EF92FF920F931F93CF93DF93EC012B0105
:101890003901842E842FB9010E94AC060E942D04C8
:1018A000B82E0E943304C038D105ECF490E44916F8
:1018B0005104CCF49E012B0D311D232BA1F092017C
:1018C000280F311D232B79F092E0690E711C811CC9
:1018D00092E0A92E6801082D7301282F4B2DB2012B
:1018E000CE010E94FD0BDF91CF911F910F91FF90D0
:1018F000EF90DF90CF90BF90AF908F907F906F90E0
:101900005F904F9008955C98FC012591CF012EBD0A
:1019100000000DB407FEFDCF6150B1F75C9A089549
:10192000089590E080E008952F923F924F925F9249
:101930006F927F928F929F92AF92BF92CF92DF92DF
:10194000EF92FF920F931F93CF93DF936C011B01D4
:101950005A01F12CE12CEA14FB0408F0F5C0D60181
:1019600014968D919C9185010E191F09801791077E
:1019700008F48C01F601D0810E945B072B013C0129
:101980008091E908811172C0C02F013208F0C0E2D5
:10199000F1E0F093E90821E0C501801B910BE81606
:1019A000F90608F420E02093E8088FEF8093E70819
:1019B0001092E6088C0F8093E508A1E0A093C4087C
:1019C0008091C408DD0FD82BD093C4088091C30840
:1019D000813009F090C01092C3080E945B072B0170
:1019E0003C018091C4088093BB008091EB089091EA
:1019F000EC08A091ED08B091EE08892B8A2B8B2B77
:101A0000A1F00E945B072091EB083091EC08409117
:101A1000ED085091EE086419750986099709261793
:101A200037074807590708F442C08091BC0083FD7E
:101A3000D8CFB5ECB093BC000E945B072B013C01F2
:101A40008091E908813009F45AC08091E6088C172A
:101A500010F4C091E608A5ECB8E0E3EAF8E080E015
:101A60008C1751F19D9191938F5FFACF8091EB0884
:101A70009091EC08A091ED08B091EE08892B8A2B8B
:101A80008B2B09F47DCF0E945B072091EB083091EE
:101A9000EC084091ED085091EE086419750986092B
:101AA0009709261737074807590708F069CF80912B
:101AB000EA080E94D207C0E01092A208C093A108D1
:101AC000C017110609F054C041018E0C9F1CE4019F
:101AD000CE01881999098017910798F5D6011196BA
:101AE0008D919C91DC01ED91FC910284F385E02DB8
:101AF00009958993EDCFE5EEE093BC009DCF8091F1
:101B0000EB089091EC08A091ED08B091EE08892BBC
:101B10008A2B8B2B09F494CF0E945B072091EB0852
:101B20003091EC084091ED085091EE086419750968
:101B300086099709261737074807590708F080CF05
:101B4000B6CFE00EF11E07CF81E0DF91CF911F915C
:101B50000F91FF90EF90DF90CF90BF90AF909F904C
:101B60008F907F906F905F904F903F902F9008954F
:101B700080E0EBCFCF93DF9300D0CDB7DEB7798392
:101B80006A83FC0184859585FC012481358122309E
:101B90003105A8F0208131E03093EF08209311093E
:101BA0001092F0081092120941E0BE016F5F7F4F62
:101BB0000E94E3080F900F90DF91CF91089580E08D
:101BC000F9CFFC0101900020E9F73197AF01481BE4
:101BD000590BBC018FE699E00C949D058F929F9262
:101BE000AF92BF920F931F93CF93DF93CDB7DEB722
:101BF000A1970FB6F894DEBF0FBECDBF19A2423039
:101C000008F44AE08E010F5D1F4F842E912CB12CF9
:101C1000A12CA50194010E94FD20E62FB901CA0163
:101C2000EA30F4F4E05DD801EE938D01232B242BF0
:101C3000252B79F790E080E0109719F0CD010E94F4
:101C4000E10DA1960FB6F894DEBF0FBECDBFDF91B8
:101C5000CF911F910F91BF90AF909F908F9008955B
:101C6000E95CE1CFCF93DF930E94E10DEC0189E9BC
:101C700091E00E94E10D8C0F9D1FDF91CF9108959F
:101C80000C94E10D1092650886E0E3E3F1E0A5E134
:101C9000B1E001900D928A95E1F710928A081092B6
:101CA000600810925F088DE0E9E3F1E0ABE1B1E09C
:101CB00001900D928A95E1F70E94732023E030E0B5
:101CC00040E050E00E94CB206F5F7F4F8F4F9F4FCF
:101CD0006093100108950C9434240C9434240F93D1
:101CE0001F93CF93DF938C01EB0188E2FB011192EC
:101CF0008A95E9F74BE050E06CE971E0CE010E9473
:101D0000BD241B8681E090E0A0E0B0E08C879D8739
:101D1000AE87BF87F80182819381092E000CAA0B40
:101D2000BB0B888B998BAA8BBB8B8DE090E0A0E0DE
:101D3000B0E08C8B9D8BAE8BBF8B1CA21DA21EA214
:101D40001FA280E090E0A0E2B2EC8C8F9D8FAE8F5E
:101D5000BF8F80E090E0AAEAB2E4888F998FAA8FC3
:101D6000BB8F8AE999E9A9E9BEE388A399A3AAA34D
:101D7000BBA3DF91CF911F910F9108950F931F93F4
:101D8000CF93DF938C01EB0188E2FB0111928A95DE
:101D9000E9F74BE050E064EA71E0CE010E94BD2417
:101DA0001B8681E090E0A0E0B0E08C879D87AE8745
:101DB000BF87F80182819381092E000CAA0BBB0B0F
:101DC000888B998BAA8BBB8B8CE090E0A0E0B0E075
:101DD0008C8B9D8BAE8BBF8B1CA21DA21EA21FA243
:101DE0001C8E1D8E1E8E1F8E80E090E0A8ECB2E44B
:101DF000888F998FAA8FBB8F80E090E0A0E0B0E43D
:101E000088A399A3AAA3BBA3DF91CF911F910F91A0
:101E100008954F925F926F927F92AF92BF92CF924E
:101E2000DF92EF92FF920F931F93CF93DF9300D037
:101E300000D000D0CDB7DEB78C017B016A018FB72F
:101E4000F8944090210450902204609023047090F4
:101E500024048FBF67E175E3C8010E94BA0D83EEC9
:101E600093E00197F1F7D80152968C91882351F0B5
:101E70006CE970E6C8010E94BA0D61E070E080E094
:101E800090E009C066E678E7C8010E94BA0D6DE0EF
:101E900070E080E090E00E94730746E050E0BE01F1
:101EA0006F5F7F4FF801848595850E94940CB82E52
:101EB000882319F3AB80CE0101960E947B03A81200
:101EC000C7C0AE80CE0104960E947B03A812C0C09A
:101ED00029813A81322723273227A7E1B1E10E94E5
:101EE0001F212EE095958795779567952A95D1F7CF
:101EF00064597141810991090E94432220E030E038
:101F000048EC52E40E94A021D8016D937D938D93FB
:101F10009C9313972C813D81322723273227A1E7F9
:101F2000B2E00E941F213CE09695879577956795D2
:101F30003A95D1F70E94412220E030E048EC52E48B
:101F40000E94A021F801648375838683978368E9E2
:101F500070EBC8010E94BA0DC114D10481F1F601E1
:101F6000349680E2DF011D928A95E9F784E290E0E1
:101F7000A0E0B0E0F60180839183A283B383D8010F
:101F80001A968D919C91B0E0A0E084839583A683FE
:101F9000B7838DE090E0A0E0B0E080879187A287D2
:101FA000B387408A518A628A738AF801808191815D
:101FB000A281B381F601848B958BA68BB78BE1143C
:101FC000F10481F1F701349680E2DF011D928A95D8
:101FD000E9F784E290E0A0E0B0E0F701808391832C
:101FE000A283B383D80118968D919C91B0E0A0E0B4
:101FF00084839583A683B7838DE090E0A0E0B0E072
:1020000080879187A287B387408A518A628A738AC0
:10201000F80184819581A681B781F701848B958B26
:10202000A68BB78B8B2D26960FB6F894DEBF0FBE0E
:10203000CDBFDF91CF911F910F91FF90EF90DF9077
:10204000CF90BF90AF907F906F905F904F9008952A
:10205000B12CE8CFAB0170E060E0FC018481958198
:102060000E94090F81E0089550E040E0FC01848166
:1020700095810E94090F81E0089585ED8093BC0051
:102080008091EB089091EC08A091ED08B091EE08DA
:102090000796A11DB11D23E0B695A7959795879545
:1020A0002A95D1F72091BC0024FD03C01092E908C5
:1020B00008954091EB085091EC086091ED08709103
:1020C000EE08452B462B472B69F30097A105B10578
:1020D00041F025E32A95F1F700000197A109B10924
:1020E000E1CF8091EA080C94D2071F920F920FB6AD
:1020F0000F9211248F939F938091E1009091E100C2
:10210000937F9093E10083FF0FC01092E90091E06C
:102110009093EB001092EC0092E39093ED001092FC
:102120009A0898E09093F00082FF22C093E0909389
:10213000E9009091F200992319F09AE39093E80056
:1021400090912E04992341F090912E0491509093F8
:102150002E04911101C05D9A90919908992341F044
:1021600090919908915090939908911101C0289AE3
:1021700084FF18C08091E2008E7E81608093E2002F
:102180008091E1008F7E8093E10080912F048E7E0C
:10219000806180932F049F918F910F900FBE0F90BD
:1021A0001F90189580FFF7CF8091E2008E7E8061AE
:1021B0008093E2008091E1008E7E8093E100809127
:1021C0002F048E7E8160E5CF1F920F920FB60F9283
:1021D0001124CF92DF92EF92FF920F931F932F93D0
:1021E0003F934F935F936F937F938F939F93AF939F
:1021F000BF93EF93FF93CF93DF93CDB7DEB76C9789
:10220000DEBFCDBF1092E9008091E80083FF25C0BA
:1022100068E0CE0145960E94900582EF8093E80029
:102220008D8987FF39C09091E80090FFFCCF982FEF
:10223000907609F034C19E894F89588D2F89F88C8A
:10224000911131C0803861F5809130048093F100A4
:102250001092F1008EEF8093E8006C960FB6F89420
:10226000DEBF0FBECDBFDF91CF91FF91EF91BF9148
:10227000AF919F918F917F916F915F914F913F911E
:102280002F911F910F91FF90EF90DF90CF900F90C3
:102290000FBE0F901F9018959EEF9093E800C7CF48
:1022A0001092F100D5CF913059F48111D3CF413044
:1022B000510581F6809130048D7F80933004CACF20
:1022C000933049F48111C6CF4130510519F6809100
:1022D00030048260F2CF953041F48091E80080FFB5
:1022E000FCCF20682093E300B5CF963009F0A9C059
:1022F0000B8D1C8D22E01092E90010922C0410929C
:102300002B04F2122EC010922A04109229040E946B
:102310005F051F8299E09983FA8291E09E8390EA9B
:1023200098879AEF998720912B0430912C04275F8E
:102330003F4F3C832B838D831092E90010922C0435
:1023400010922B0410932A040093290449E050E0D2
:10235000BE016F5F7F4F80E00E9439050E945F05DC
:1023600079CF10932A04009329040E947404DC019D
:1023700012960D911C910115110509F451C1D80156
:10238000ED91FC910480F581E02DBE016B5E7F4FE5
:10239000C8010995009709F03EC1F8010085118533
:1023A000EACFF3E0FF120EC08F89882309F440C002
:1023B000823061F440E867E080E196E00E94961484
:1023C000811148CF81E28093EB0047CF813029F41F
:1023D00040E86BE084E096E0F1CF833099F70E940B
:1023E0007404DC011296ED90FC908E010F5F1F4F7C
:1023F0006801E114F10479F0D701ED91FC910680B8
:10240000F781E02DB801C7010995080F111DF701EB
:10241000E084F184EECFD8011C92F60101900020F7
:10242000E9F73197BF016C197D0940E0C601C6CFBD
:102430006EEE75E0FB01449150E080E80E943905A2
:1024400009CF973009F4BECF983021F481E0809312
:10245000F10000CF993009F0FDCE837009F0B2CFC2
:10246000E7E4F1E081E031E096E32191222371F08D
:102470008093E9003093EB00DF0111972C912093BA
:10248000EC009093ED008F5F873079F78EE78093B3
:10249000EA001092EA008F8980939A08DBCE8B8D38
:1024A0009C8D1092E90010922C0410922B049093B2
:1024B0002A0480932904898D811192C08E899D8977
:1024C000913A49F4813209F07DCF47E050E064E071
:1024D00071E080E0B3CF913209F074CF833269F4B8
:1024E0008F89988DB0E0A0E0809300019093010166
:1024F000A0930201B0930301ADCE803269F48091C4
:10250000E80082FFFCCF67E084E091E00E94900544
:102510008BEF8093E8009ECE823209F09BCE8F89AC
:1025200080930B01EEEFFFE7859194918B3F9C4DDB
:1025300051F1E0E0F8E08091040190910501A09153
:102540000601B0910701803B9440A105B105F1F46B
:1025500080910B0180FD1AC0EE3F8AE0F80789F5F3
:1025600087E797E7918380838091600080932D04B3
:1025700088E19BE00FB6F894A895809360000FBEA9
:102580009093600067CEEEEFFAE0D5CF8081918125
:102590008737974709F05ECEA895809160008861E3
:1025A0008093600080912D0480936000EE3F2AE0CC
:1025B000F20789F08091FE0A9091FF0A918380834F
:1025C00049CE808191818737980751F29093FF0A15
:1025D0008093FE0AC5CF1092FF0A1092FE0A3ACEEF
:1025E0000E947404DC0112960D911C9101151105D5
:1025F00009F4E8CED801ED91FC910190F081E02D35
:10260000BE016B5E7F4FC8010995811123CEF80191
:1026100000851185EBCF181619060CF41BCED2CE0F
:10262000F1E0FF12BECE62EF75E004CF0F920FB65D
:102630008F939F93EF93FF93809120048D5F8D374D
:1026400008F08D5780932004E1E2F4E080818E4F02
:10265000808391819F4F918382818F4F8283838179
:102660008F4F8383E5E2F4E080818F5F80838181F7
:102670008F4F818382818F4F828383818F4F8383AA
:102680008FB18F6066991C9B88278F3681F480916B
:102690001F04981B963068F0E0E0F8E087E780833D
:1026A000818388E180936000F0936000FFCF909376
:1026B0001F04FF91EF919F918F910FBE0F9018957E
:1026C0001F920F920FB60F9211242F933F934F93A7
:1026D0005F936F937F938F939F93AF93BF93EF938A
:1026E000FF938091B900887F803609F44AC0F0F5E5
:1026F000883209F4A7C018F5803109F49BC0B8F4FA
:10270000882309F4F9C0883009F494C0FF91EF914F
:10271000BF91AF919F918F917F916F915F914F91F9
:102720003F912F910F900FBE0F901F9018958831F9
:1027300009F488C0803251F78093E70814C08034D0
:1027400009F49DC040F48033B9F38833F9F68093DF
:10275000E70885ECB0C0803509F485C0883509F4F8
:1027600096C0883499F60E943D10D0CF883909F47C
:102770008CC038F5883729F050F4883611F080374E
:1027800029F683E08093E90810921E0457C0883828
:1027900009F47BC0803919F0803809F0B7CF8091F7
:1027A0001E04803208F071C0E0911E0481E08E0F9B
:1027B00080931E048091BB00F0E0E250FC4F8083C8
:1027C0003DC0803B39F0E0F4803A09F479C0883AA2
:1027D00009F09CCF84E08093E9081092FD031092E9
:1027E000FC03E0913304F091340409958091FC03DB
:1027F00081110FC081E08093FC031092DC0309C0BB
:10280000803C09F4A6CF883C09F4A3CF883B09F0AB
:102810007DCFE091FD0381E08E0F8093FD03F0E01A
:10282000E452FC4F80818093BB009091FD03809126
:10283000FC0329C08091C4088093BB0085EC809381
:10284000BC0064CF9091E6088091E508981758F590
:10285000E091E60881E08E0F8093E608F0E0EB530C
:10286000F74F8081E9CFE091E60881E08E0F8093F9
:10287000E6088091BB00F0E0EB53F74F8083909126
:10288000E6088091E5089817C8F285E8D8CFE0916E
:10289000E60881E08E0F8093E6088091BB00F0E0AF
:1028A000EB53F74F80838091E80881115CCF81E082
:1028B0008093C30884EA8093BC001092E90826CF75
:1028C00085EC8093BC001092E90880911E04803250
:1028D00030F4E0911E04F0E0E250FC4F1082609171
:1028E0001E0470E0E0913504F09136048EEF93E021
:1028F000099510921E040ACF1092E70834CF1F9258
:102900000F920FB60F9211248F939F9383E298E05A
:10291000909399008093980081E0809337089F916D
:102920008F910F900FBE0F901F901895EF92FF920E
:102930000F931F93CF93DF93F82E192FE62E042FBA
:1029400081E0860F880F0E940B0583E00E940B0533
:10295000CF2DD12FEC0EFD2EF11CCE15DF05B9F0D9
:1029600007FF13C0FE0184910E940B05182F80E021
:102970000E940B05812321968111EFCFDF91CF912A
:102980001F910F91FF90EF9008958881EDCF81E026
:10299000F5CFE3E1F9E01382128288EE93E0A0E044
:1029A000B0E084839583A683B7832DE631E031833D
:1029B00020832FEF3FEF35872487E3E6F9E013828A
:1029C000128284839583A683B7838FE791E09183F6
:1029D0008083E3E7F9E01586148617861686118A48
:1029E000108A128AEFE6F9E01382128281E991E0FF
:1029F000918380830895CDB7DEB72A97DEBFCDBF20
:102A0000789483E084BD83E085BD81E080936E008F
:102A1000E1E8F0E083E08083E0E881E08083E1E9C1
:102A200083E08083E0E981E08083E1EC87E08083DC
:102A3000E3EC81E08083E0EC82E08083E2EC81E003
:102A40008083EAE787E080838068808310929A0819
:102A50001092300410922F048091D70081608093EF
:102A6000D70080EA8093D80089B5806189BD89B597
:102A7000826089BD09B400FEFDCF81E090E00E9434
:102A8000C0068091D8008F7C80618093D8008091AF
:102A9000E000807F8093E0008091E1008E7E809353
:102AA000E1008DE08093E200559A209A81EC8093BA
:102AB0007C0081EF85B987EE84B984E38BB984EF1C
:102AC0008AB9769A6E9880EF81BB10BA80E58CBD8A
:102AD00081E08DBD0E94D4065F9A0E94D4065C9866
:102AE000E8E1F6E085918EBD00000DB407FEFDCF54
:102AF000E532C1F75C9A81E88093640081E08093BD
:102B000065006AE085E296E00E94830C2FB7F89496
:102B100083E298E0909399008093980093E09093DB
:102B200090008BE180939100109295001092940098
:102B3000809171008260809371002FBF90930C018F
:102B40005E9AE4E1F0E081E99DEF60EF7FEF25918F
:102B50003591559145912851354909F4CA01809321
:102B60003104909332042591359155914591285126
:102B7000354909F4BA0160939F087093A0088BEA65
:102B80000E94B8060E9409048CE08093B8008091EE
:102B900064008F778093640080917F099091800911
:102BA000009711F00E94342486E090E00E94982360
:102BB0008C0180E7F801808383E699E0928381832A
:102BC000138280E290E095838483109380090093C0
:102BD0007F091092A2081092A1081092F00810929A
:102BE00012090E94B40789E095E090933404809321
:102BF00033048AE095E09093360480933504FF24F3
:102C0000F394F801F382C8010E94FD08882309F4B7
:102C10006FC06DE570E883E799E00E94BA0D61E04E
:102C200070E080E090E00E94730767E175E383E75E
:102C300099E00E94BA0D83EE93E00197F1F78FEED1
:102C40008C8388EC8D8300917F0910918009F801B5
:102C5000848195810297D0F08081F092EF08809373
:102C600011091092F0081092120940E0BE016C5F49
:102C70007F4FC8010E94E308882341F043E050E001
:102C8000BE016F5F7F4FC8010E94940C89819A81B9
:102C90009827892798278F7398708730984041F537
:102CA00086E090E00E949823FC018FE591E09183FB
:102CB000808381EC93E09383828303E719E015839B
:102CC0000483F0938409E093830986E090E00E94F6
:102CD0009823FC0181E591E09183808380E39CE06F
:102CE0009383828315830483F0938209E09381099F
:102CF00081E0809385091092640810926308109215
:102D00006208109261085E98F894809137088111EA
:102D100009C083B7816083BF7894889583B78E7F1D
:102D200083BFF2CF10923708789410918C082FE768
:102D300041E050E061E070E087EB97E00E94500ACC
:102D400062E081E396E00E94830C2FEF47E051E0C0
:102D500061E070E087E394E00E94500A62E08FE255
:102D600096E00E94830C81E0112331F080913808B5
:102D70008F5F8093380880E080938C085E9A809102
:102D800038088823B9F081508093380880913A0838
:102D9000809339080E944B0680933A0810918B0863
:102DA000123009F46BC108F5112309F45CC011302D
:102DB00009F4C5C0B0908C08BB0CA0908B0812E041
:102DC000A11609F4A2C71A1508F49BC2AA2009F497
:102DD0005CC621E0A21609F47BC680E090E0892B56
:102DE00009F491CF0E9400008ECF153009F45CC227
:102DF000163009F466C21330E9F680E20E946906D3
:102E0000882329F00E94420E81E080938B0880E4A1
:102E10000E946906882339F00E94420E0E9409042C
:102E200085E080938B088091100181117AC180E345
:102E300080930E0185E080930F018EED92E6A1E074
:102E40008093110190931201A093130181E080936C
:102E50009B0880930D0183E1809328010E94AC0AB6
:102E60000E949903A7CF88E00E946906882309F48D
:102E700041C0809164008E7F8093640080917A00CD
:102E8000806480937A0080917A0086FDFCCF009167
:102E90007800109179000E945B07AB01BC01C8016A
:102EA000B0E0A0E0DC01992788278C019D01040F88
:102EB000151F261F371FC901B8012091640021602A
:102EC00020936400611571058105910511F00E9440
:102ED000C2200E94732023E030E040E050E00E94D6
:102EE000CB206F5F7F4F8F4F9F4F6093100181E02A
:102EF00080938B0880E20E946906882309F45ACFE8
:102F000010929D0810929C0810929B0810929E08A7
:102F10002E982F982D980E9499032E9A2F9A2D9AC9
:102F200066E970E080E090E00E9473072E982F9889
:102F30002D980E9409042E9A2F9A2D9A3BCF46E68F
:102F400058E06BE378E083E799E00E94090FC090B6
:102F50007A08D0907B08E0907C08F0907D082AE900
:102F600039E945EE51E4C701B6010E949B2187FF74
:102F700068C01093250110922601109224018091BF
:102F80002501882399F08091200190912101A09141
:102F90002201B09123010197A109B1098093200179
:102FA00090932101A0932201B093230180912601E7
:102FB000882399F08091200190912101A091220114
:102FC000B09123010197A109B10980932001909349
:102FD0002101A0932201B093230180912401882331
:102FE00099F08091200190912101A0912201B0914E
:102FF00023010196A11DB11D809320019093210111
:10300000A0932201B093230180912001909121018E
:10301000A0912201B0912301883014E091071BEFA9
:10302000A10712E0B10719F582E080938B080E9496
:103030004B0687FF03C082E080938B080E947E0AC4
:10304000B9CE23E333E347E152E4C701B6010E945E
:10305000F32218162CF410932601109225018DCF1F
:1030600010932401109225011092260188CF8037F9
:10307000994CAA4FB240D9F686E0D7CF84E280932C
:103080001B018AEE9CE1A0E080931D0190931E013C
:10309000A0931F018091190190911A018F3791051A
:1030A0002CF410930D0184E08093280180915F0837
:1030B000909160088536910514F410928A089C015D
:1030C000255631092336310518F421E020938A086A
:1030D0009C01285C31092436310518F422E0209344
:1030E0008A089C012C5231402436310558F423E0E3
:1030F00020938A0801969093600880935F0810924D
:10310000650858CE8039A1E09A07A4F324E0209303
:103110008A08843AE1E09E076CF381E080936508B9
:1031200049CE813081F42EE235E441E02093110153
:10313000309312014093130180939D0880E38093A4
:103140000E0185E038C0823069F480EB96E4A1E09E
:103150008093110190931201A093130181E0809359
:103160009C08ECCF833069F482E398E4A1E080937B
:10317000110190931201A093130181E080939E08A6
:10318000DDCF843051F484EB99E4A1E08093110108
:1031900090931201A0931301D1CF853079F426E3E7
:1031A0003BE441E02093110130931201409313015D
:1031B00090E390930E0180930F0152CE863021F45C
:1031C00088EB9CE4A1E0E2CF873021F48AE39EE41F
:1031D000A1E0DCCF883021F484EA9FE4A1E0D6CFDF
:1031E000893021F48AE191E5A1E0D0CF8A3021F441
:1031F0008CE992E5A1E0CACF8B3021F486E094E51A
:10320000A1E0C4CF8C3021F488E895E5A1E0BECFE1
:103210000EEF16E521E08D3009F18E3021F480E8C3
:1032200098E5A1E0B3CF02E01AE521E08F30B1F0DC
:10323000803121F484E89BE5A1E0A8CF06E01DE5FC
:1032400021E0813159F0823121F488E89EE5A1E046
:103250009DCF833151F40AED1FE521E00093110168
:10326000109312012093130169CF843121F48CE56E
:1032700091E6A1E08BCF853181F40CEC16EE21E0D4
:1032800000931101109312012093130180E38093A6
:103290000E0185E080930F01DECD863109F0E0CD8F
:1032A00082EE90EEA1E072CF88E00E94690688234A
:1032B00029F00E94420E81E080938B080E94AC0AA4
:1032C00079CD83E0809328010EE817E320E0009396
:1032D0001D0110931E0120931F010E947E0A88E0A9
:1032E0000E946906811110928B0884E00E94690691
:1032F000882309F45FCD0E94420E81E080938B0801
:1033000059CD35E0A31609F4B6C586E0A81609F430
:103310005AC693E0A91261CDEB2CF12CC0900F019D
:10332000D12C36010AE0600E711C87012CE237E3D4
:1033300040E0B30190E080E00E94370C46011EE1BE
:10334000810E911C87010A5F1F4F20E030E040E0B2
:10335000B40190E080E00E94370C870126E432E05F
:1033600040E0B30180E790E00E94370C075F1F4FF9
:1033700020E030E040E0B40180E790E00E94370CAC
:1033800080911001811126C080918A0887018A9D51
:10339000000D111D11242091110130911201409155
:1033A000130180910E01B60190E00E94370C22E0DB
:1033B0002B15B8F18FE090E0909364088093630838
:1033C00087E390E0909362088093610885EE91E036
:1033D0000E94400E80911001813019F52091110159
:1033E000309112014091130160910F0170E08091C2
:1033F0000E0110E000E090E00E94370C32E03B1537
:10340000B8F18FE090E0909364088093630887E3BD
:1034100090E0909362088093610887EF91E00E94AA
:10342000400E80911001823019F5209111013091E8
:1034300012014091130160910F0170E080910E0123
:1034400010E000E090E00E94370C82E08B15B8F1AC
:103450008FE090E0909364088093630887E390E0A6
:10346000909362088093610888E092E00E94400E89
:1034700080911001833019F52091110130911201D2
:103480004091130160910F0170E080910E0110E0F6
:1034900000E090E00E94370C92E09B15A8F18FE0CD
:1034A00090E0909364088093630887E390E09093A2
:1034B0006208809361088DE192E00E94400E809145
:1034C0001001843009F520911101309112014091D1
:1034D000130160910F0170E080910E0110E000E097
:1034E00090E00E94370CA2E0AB15A8F1109264089E
:1034F0001092630887E390E09093620880936108DC
:103500008DE192E00E94400E80911001853019F506
:1035100020911101309112014091130160910F012E
:1035200070E080910E0110E000E090E00E94370C06
:10353000E2E0EB15B8F18FE090E09093640880939F
:10354000630887E390E090936208809361088AE3C0
:1035500092E00E94400E80911001863019F5209172
:103560001101309112014091130160910F0170E03F
:1035700080910E0110E000E090E00E94370CF2E034
:10358000FB15A8F18FE090E09093640880936308A6
:1035900087E390E0909362088093610883E492E06F
:1035A0000E94400E80911001873009F52091110191
:1035B000309112014091130160910F0170E08091F0
:1035C0000E0110E000E090E00E94370C02E00B15C5
:1035D000A8F1109264081092630887E390E090933A
:1035E0006208809361088FE492E00E94400E80910F
:1035F0001001883019F5209111013091120140918C
:10360000130160910F0170E080910E0110E000E065
:1036100090E00E94370C12E01B15B8F18FE090E0AB
:10362000909364088093630887E390E09093620826
:10363000809361088BE692E00E94400E8091100119
:10364000893019F520911101309112014091130137
:1036500060910F0170E080910E0110E000E090E0B9
:103660000E94370C22E02B15B8F18FE090E0909388
:1036700064088093630887E390E0909362088093E6
:1036800061088FE792E00E94400E809110018A301D
:1036900019F52091110130911201409113016091AF
:1036A0000F0170E080910E0110E000E090E00E94B8
:1036B000370C32E03B15B8F18FE090E0909364084E
:1036C0008093630887E390E0909362088093610899
:1036D00081E992E00E94400E809110018B3019F533
:1036E00020911101309112014091130160910F015D
:1036F00070E080910E0110E000E090E00E94370C35
:1037000082E08B15B8F18FE090E09093640880938D
:10371000630887E390E0909362088093610881EAF0
:1037200092E00E94400E809110018C3019F520919A
:103730001101309112014091130160910F0170E06D
:1037400080910E0110E000E090E00E94370C92E0C2
:103750009B15B8F18FE090E0909364088093630824
:1037600087E390E0909362088093610889EB92E090
:103770000E94400E809110018D3019F520911101A9
:10378000309112014091130160910F0170E080911E
:103790000E0110E000E090E00E94370CA2E0AB15B3
:1037A000B8F18FE090E0909364088093630887E31A
:1037B00090E090936208809361088BEC92E00E9405
:1037C000400E809110018E3019F520911101309139
:1037D00012014091130160910F0170E080910E0180
:1037E00010E000E090E00E94370CE2E0EB15B8F149
:1037F0008FE090E0909364088093630887E390E003
:10380000909362088093610888EE92E00E94400ED7
:10381000809110018F3019F5209111013091120122
:103820004091130160910F0170E080910E0110E052
:1038300000E090E00E94370CF2E0FB15B8F18FE059
:1038400090E0909364088093630887E390E09093FE
:1038500062088093610883E093E00E94400E8091AB
:103860001001803119F52091110130911201409120
:10387000130160910F0170E080910E0110E000E0F3
:1038800090E00E94370C02E00B15B8F18FE090E059
:10389000909364088093630887E390E090936208B4
:1038A0008093610881E293E00E94400E80911001B4
:1038B000813119F5209111013091120140911301CC
:1038C00060910F0170E080910E0110E000E090E047
:1038D0000E94370C12E01B15B8F18FE090E0909336
:1038E00064088093630887E390E090936208809374
:1038F000610889E393E00E94400E809110018231BB
:1039000019F520911101309112014091130160913C
:103910000F0170E080910E0110E000E090E00E9445
:10392000370C22E02B15B8F18FE090E090936408FB
:103930008093630887E390E0909362088093610826
:103940008AE493E00E94400E80911001833119F5C2
:1039500020911101309112014091130160910F01EA
:1039600070E080910E0110E000E090E00E94370CC2
:1039700032E03B15B8F18FE090E0909364088093BB
:10398000630887E390E0909362088093610888E57C
:1039900093E00E94400E80911001843119F520912E
:1039A0001101309112014091130160910F0170E0FB
:1039B00080910E0110E000E090E00E94370C82E060
:1039C0008B15C8F18FE090E09093640880936308B2
:1039D00087E390E0909362088093610880E793E02A
:1039E0000E94400E80911001853129F5209111012E
:1039F000309112014091130160910F0170E08091AC
:103A00000E0110E000E090E00E94370C92E09B1560
:103A100080F08FE090E0909364088093630887E3E0
:103A200090E0909362088093610889E893E00E9497
:103A3000400E0E94AC0A80911001863109F0CDC978
:103A400020911101309112014091130160910F01F9
:103A500070E080910E0110E000E090E00E94370CD1
:103A6000A2E0AB1508F4B9C98FE090E09093640828
:103A70008093630887E390E09093620880936108E5
:103A80008DEA93E00E94400EA8C9A2E0AB1508F4AD
:103A9000A4C91092640810926308109262081092F0
:103AA00061088CEA91E00E94320E0E9409048111A3
:103AB00094C9109264081092630880E290E0909399
:103AC0006208809361088CEB91E00E94320E85C9F8
:103AD00084E08093280188EA92E0A0E080931D01B1
:103AE00090931E01A0931F0180918A080B2D10E076
:103AF000E3E08E9F000D111D112460911C0170E008
:103B000080911B0128EA32E040E090E00E94370CEF
:103B1000B1103BC0109264081092630810926208C2
:103B200010926108C0902001D0902101E090220104
:103B3000F09023014AE0C701B601F7FE0DC06DE227
:103B40008FE699E00E94BC0966277727CB016C19A4
:103B50007D098E099F094AE00E94EE0D10926408CB
:103B6000109263088AE090E0909362088093610865
:103B700060911B0170E090E080E04AE00E94EE0D51
:103B800089E991E00E94E10D03C0F1E0BF1631F335
:103B900002E00B1508F421C9109264081092630822
:103BA00084E190E0909362088093610882EA91E05A
:103BB0000E94400EC0907A08D0907B08E0907C086C
:103BC000F0907D08A7019601C701B6010E94652308
:103BD000882349F083ED91E00E94E10D89E991E0AD
:103BE0000E94E10DFAC846015701E894B7F82FEF9B
:103BF0003FEF4FE75FE7C501B4010E9465238111E4
:103C00000DC02FEF3FEF4FE75FE7C501B4010E9402
:103C10009B2118161CF487ED91E0DECF2FEF3FEFCC
:103C20004FE75FE4C701B6010E94F32218161CF4A7
:103C30008BED91E0D1CF2FEF3FEF4FE75FECC70166
:103C4000B6010E949B2187FDF3CF20E030E0A9015F
:103C5000C701B6010E949B2187FF09C06DE28FE674
:103C600099E00E94BC09F7FAF094F7F8F0942AE082
:103C700037ED43EA5BE3C701B6010E942F214B01F8
:103C80005C010E9412226B017C010E9441229B0177
:103C9000AC01C501B4010E942E214B015C014AE038
:103CA000C701B6010E94EE0D6EE28FE699E00E9418
:103CB000BC0920E030E040E251E4C501B4010E94BB
:103CC000F8224B015C010E9412226B01F12CE12CC5
:103CD0004AE0C701B6010E94EE0DC701B6010E947D
:103CE00041229B01AC01C501B4010E942E2120E0BC
:103CF00030E040E251E40E94F8220E94122290E05B
:103D000080E04AE00E94EE0D69CF12E01B1570F0D2
:103D1000109264081092630884E190E09093620826
:103D2000809361088FED91E00E94400EA0901901F0
:103D3000B0901A012FE7A216B104CCF480918A0842
:103D400000918C08000F10E033E0839F000D111DDF
:103D5000112420911D0130911E0140911F0160919D
:103D60001C0170E080911B0190E00E94370C809153
:103D70006508882309F431C80091170110911801D2
:103D800019870887C0901501D09016018501112769
:103D90004A2D440F4F5F68857985601B710B21E0C8
:103DA000C6010E94740681E090E02C01401A510A7D
:103DB00066247724601A710A660C771CF12CE12CBA
:103DC00088248394912CE016F1060CF041C057FC36
:103DD00007C00150110922E0620E711C460C571CED
:103DE0003FEFE31AF30A82E0880E911C480C591C3D
:103DF000302E330C33943A8621E0432D28843984C5
:103E0000201A310AB101C6018E0D9F1D0E94740651
:103E1000E885F985EE19FF09FF83EE8321E0482D3F
:103E2000BF01C601800F911F0E94740621E04A85E0
:103E3000B101C6018E199F090E94740621E0482D28
:103E40006E817F81C601801B910B0E947406BBCFDF
:103E5000F6E9AF16B10444F4C501059690931A0132
:103E6000809319010C94ED160E94990383E08093CE
:103E70008B080C94ED1683E18093280180919C08B7
:103E8000882391F180E99CE4A0E080931101909354
:103E90001201A093130182E180930E0110920F0191
:103EA00000918A0860E97CE480E00E94AC060E94F0
:103EB0002D04182F0E9433048823B1F0CB2CD12C71
:103EC000E3E00E9FC00CD11C112493E0A92E02E95F
:103ED000E02E0CE4F02E00E0282F412F70E060E08F
:103EE00082E190E00E94FD0B80919B08882301F104
:103EF00082E99BE5A0E08093110190931201A093C9
:103F0000130188E380930E0110920F0180918A08BB
:103F10000B2D10E0F3E08F9F000D111D112422E9FD
:103F20003BE540E070E060E088E390E00E94370C01
:103F300080919E08882301F184E999E7A0E08093AD
:103F4000110190931201A093130184E280930E015A
:103F500010920F0180918A080B2D10E023E0829FC0
:103F6000000D111D112424E939E740E070E060E004
:103F700084E290E00E94370C80919D08882311F420
:103F80000C94ED1686E191E8A0E0809311019093E6
:103F90001201A093130110920E0110920F01809153
:103FA0008A080B2D10E033E0839F000D111D1124B2
:103FB00026E131E840E070E060E090E080E00E94BF
:103FC000370C0C94ED1680918A080B2D10E093E0CD
:103FD000899F000D111D112420911D0130911E019A
:103FE00040911F0160911C0170E080911B0190E0E5
:103FF0000E94370CB1100C94ED16109264081092C8
:104000006308109262081092610884EC93E00E94A9
:10401000320E8FEC93E059CD809181099091820905
:10402000009739F0DC01ED91FC910280F381E02DE5
:1040300009958091830990918409009739F0DC01FA
:10404000ED91FC910280F381E02D099408958F9207
:104050009F92AF92BF92CF92DF92EF92FF92CF9357
:10406000DF93EC01688179818A819B8161157105FB
:104070008105910521F464E279ED8BE597E02DE16E
:1040800033EF41E050E00E94CB2049015A019B01EF
:10409000AC01A7EAB1E40E94EA206B017C01ACEE1E
:1040A000B4EFA50194010E94F820C60ED71EE81EA9
:1040B000F91EF7FE06C081E0C81AD108E10880E8C1
:1040C000F80AC882D982EA82FB82C701B6019F77CB
:1040D000DF91CF91FF90EF90DF90CF90BF90AF90A6
:1040E0009F908F9008958F929F92AF92BF92CF92A0
:1040F000DF92EF92FF926091290170912A018091E5
:104100002B0190912C01611571058105910521F418
:1041100064E279ED8BE597E02DE133EF41E050E08B
:104120000E94CB2049015A019B01AC01A7EAB1E4EE
:104130000E94EA206B017C01ACEEB4EFA501940172
:104140000E94F820C60ED71EE81EF91EF7FE06C014
:1041500081E0C81AD108E10880E8F80AC092290174
:10416000D0922A01E0922B01F0922C01C701B601F6
:104170009F77FF90EF90DF90CF90BF90AF909F9090
:104180008F9008956093290170932A0180932B01E9
:1041900090932C010895052E97FB1EF400940E9425
:1041A000E22057FD07D00E94FD2007FC03D04EF40B
:1041B0000C94E22050954095309521953F4F4F4FFC
:1041C0005F4F089590958095709561957F4F8F4FC3
:1041D0009F4F08950E941F21A59F900DB49F900DA1
:1041E000A49F800D911D11240895B7FF0C94EA201F
:1041F0000E94EA20821B930B0895A1E21A2EAA1BAB
:10420000BB1BFD010DC0AA1FBB1FEE1FFF1FA21786
:10421000B307E407F50720F0A21BB30BE40BF50B83
:10422000661F771F881F991F1A9469F7609570950C
:10423000809590959B01AC01BD01CF010895A29F8F
:10424000B001B39FC001A39F700D811D1124911D6A
:10425000B29F700D811D1124911D08955058BB27E8
:10426000AA270E9446210C94B9220E94AB2238F062
:104270000E94B22220F039F49F3F19F426F40C94E6
:10428000A8220EF4E095E7FB0C94A222E92F0E94ED
:10429000CA2258F3BA17620773078407950720F0FC
:1042A00079F4A6F50C94EC220EF4E0950B2EBA2FBF
:1042B000A02D0B01B90190010C01CA01A00111242C
:1042C000FF27591B99F0593F50F4503E68F11A16D8
:1042D000F040A22F232F342F4427585FF3CF469569
:1042E00037952795A795F0405395C9F77EF41F168B
:1042F000BA0B620B730B840BBAF09150A1F0FF0F55
:10430000BB1F661F771F881FC2F70EC0BA0F621F40
:10431000731F841F48F4879577956795B795F79530
:104320009E3F08F0B0CF9395880F08F09927EE0FC5
:104330009795879508950E947E2208F481E008955C
:104340000E94B4210C94B9220E94B22258F00E941B
:10435000AB2240F029F45F3F29F00C94A2225111C6
:104360000C94ED220C94A8220E94CA2268F399238F
:10437000B1F3552391F3951B550BBB27AA27621761
:104380007307840738F09F5F5F4F220F331F441F6E
:10439000AA1FA9F335D00E2E3AF0E0E832D09150A2
:1043A0005040E695001CCAF72BD0FE2F29D0660F8F
:1043B000771F881FBB1F261737074807AB07B0E8D2
:1043C00009F0BB0B802DBF01FF2793585F4F3AF0D8
:1043D0009E3F510578F00C94A2220C94ED225F3F91
:1043E000E4F3983ED4F3869577956795B795F7955E
:1043F0009F5FC9F7880F911D9695879597F9089546
:10440000E1E0660F771F881FBB1F621773078407E1
:10441000BA0720F0621B730B840BBA0BEE1F88F7F0
:10442000E09508950E94D22288F09F5798F0B92F06
:104430009927B751B0F0E1F0660F771F881F991FD9
:104440001AF0BA95C9F714C0B13091F00E94EC226D
:10445000B1E008950C94EC22672F782F8827B85F7D
:1044600039F0B93FCCF3869577956795B395D9F731
:104470003EF490958095709561957F4F8F4F9F4F3B
:104480000895E89409C097FB3EF490958095709547
:1044900061957F4F8F4F9F4F9923A9F0F92F96E990
:1044A000BB279395F695879577956795B795F11105
:1044B000F8CFFAF4BB0F11F460FF1BC06F5F7F4FA2
:1044C0008F4F9F4F16C0882311F096E911C07723B4
:1044D00021F09EE8872F762F05C0662371F096E8BD
:1044E000862F70E060E02AF09A95660F771F881F8C
:1044F000DAF7880F9695879597F90895990F000830
:10450000550FAA0BE0E8FEEF16161706E807F907A5
:10451000C0F012161306E407F50798F0621B730B40
:10452000840B950B39F40A2661F0232B242B252BC1
:1045300021F408950A2609F4A140A6958FEF811D64
:10454000811D089597F99F6780E870E060E0089505
:104550009FEF80EC089500240A941616170618069B
:104560000906089500240A94121613061406050677
:104570000895092E0394000C11F4882352F0BB0F08
:1045800040F4BF2B11F460FF04C06F5F7F4F8F4F6B
:104590009F4F089557FD9058440F551F59F05F3FA6
:1045A00071F04795880F97FB991F61F09F3F79F055
:1045B00087950895121613061406551FF2CF4695D7
:1045C000F1DF08C0161617061806991FF1CF869559
:1045D0007105610508940895E894BB27662777273D
:1045E000CB0197F908950E947E2208F48FEF089579
:1045F0000E940B230C94B9220E94AB2238F00E9437
:10460000B22220F0952311F00C94A2220C94A8223F
:1046100011240C94ED220E94CA2270F3959FC1F3DD
:10462000950F50E0551F629FF001729FBB27F00D60
:10463000B11D639FAA27F00DB11DAA1F649F6627B5
:10464000B00DA11D661F829F2227B00DA11D621F04
:10465000739FB00DA11D621F839FA00D611D221FBE
:10466000749F3327A00D611D231F849F600D211DA2
:10467000822F762F6A2F11249F5750409AF0F1F025
:1046800088234AF0EE0FFF1FBB1F661F771F881F8E
:1046900091505040A9F79E3F510580F00C94A22202
:1046A0000C94ED225F3FE4F3983ED4F38695779522
:1046B0006795B795F795E7959F5FC1F7FE2B880F34
:1046C000911D9695879597F908950E947E22880BF3
:1046D000990B089597FB072E16F4009407D077FDE9
:1046E00009D00E94842307FC05D03EF49095819563
:1046F0009F4F0895709561957F4F0895EE0FFF1FAE
:104700000590F491E02D0994AA1BBB1B51E107C051
:10471000AA1FBB1FA617B70710F0A61BB70B881F51
:10472000991F5A95A9F780959095BC01CD010895E0
:104730000F931F93CF93DF938230910510F482E0A3
:1047400090E0E0918809F091890930E020E0B0E044
:10475000A0E0309799F42115310509F44AC0281BCF
:10476000390B24303105D8F58A819B81611571059B
:1047700089F1FB0193838283FE0111C04081518145
:104780000281138148175907E0F04817590799F437
:10479000109761F012960C93129713961C93329611
:1047A000CF01DF91CF911F910F9108950093880958
:1047B00010938909F4CF2115310551F042175307A1
:1047C00038F0A901DB019A01BD01DF01F801C1CF79
:1047D000EF01F9CF9093890980938809CDCFFE012D
:1047E000E20FF31F8193919322503109398328837B
:1047F000D7CF2091860930918709232B41F420914E
:104800002F01309130013093870920938609209140
:104810002D0130912E012115310541F42DB73EB700
:104820004091310150913201241B350BE0918609F2
:10483000F0918709E217F307A0F42E1B3F0B28170E
:10484000390778F0AC014E5F5F4F2417350748F009
:104850004E0F5F1F50938709409386098193919370
:104860009FCFF0E0E0E09CCFCF93DF930097E9F09B
:10487000FC01329713821282A0918809B0918909B4
:10488000ED0130E020E01097A1F420813181820F0A
:10489000931F20918609309187092817390709F05D
:1048A00061C0F0938709E0938609DF91CF91089565
:1048B000EA01CE17DF07E8F54A815B819E014115C9
:1048C0005105B1F7E901FB83EA8349915991C40F7E
:1048D000D51FEC17FD0761F4808191810296840F4A
:1048E000951FE90199838883828193819B838A83C1
:1048F000F0E0E0E012968D919C9113970097B9F546
:104900002D913C911197CD010296820F931F20911A
:104910008609309187092817390739F6309751F5FC
:104920001092890910928809B0938709A09386098B
:10493000BCCFD383C28340815181840F951FC81798
:10494000D90761F44E5F5F4F88819981480F591FE5
:10495000518340838A819B81938382832115310512
:1049600009F0B0CFF0938909E09388099ECFFD014B
:10497000DC01C0CF13821282D7CFFB01DC01415092
:10498000504048F001900D920020C9F701C01D92DF
:1049900041505040E0F7089513E0C0E5D3E004C073
:1049A000FE010E947E232196C135D107C9F7F894F4
:1049B000FFCFFFFFFFFF00E1000000000000010249
:1049C000200001324801144000400005004600A8C4
:1049D000020058CDFA0200000000040100000000AF
:1049E000008A0980004000400005004600A802003F
:1049F00058CDFA020000000000C1808100000000D4
:104A00000000008B076D0E8C072A106F0E0000004F
:104A1000008B076B0E8C073410BE0E00000000CA1E
:104A200005D806EB05E0053106EF050D0600000090
:104A3000008D096009910C360959094609370900AA
:104A4000000000BC099D05910C900C0D0A00534814
:104A50005443335F540053485443335F48004D6F11
:104A60006E73746572204E757273657279004E6F45
:104A70002073617665206461746120646574656388
:104A800074656421006E616E00696E66006F766603
:104A9000004F682E2E3F0041204D61676D616C69AB
:104AA0006F6E2120576F7721004974277320612092
:104AB00042756E6E6F6C696F21004120476F6F7099
:104AC00021204974207374696E6B732E2E2E004260
:104AD00065206361726566756C20776974682074FF
:104AE000686520556E6167692E2E2E00416E204F3D
:104AF00063746F2100617777206120736E656B218D
:104B000000427275682E20546861742773206A759C
:104B100073206120636869636B656E2E00414C4CA5
:104B2000204841494C204859504E4F544150495219
:104B3000004120686F726E6574212047657420699A
:104B4000743F0054686520446976696E652042753B
:104B50006C6C0041207765697264206C6F6F6B69C3
:104B60006E2068617270792E2E2E0046756E677504
:104B7000736175727573205265783F2100436172CD
:104B80006566756C21205365617370696B65732070
:104B90006172652073686172700041682C205468EE
:104BA0006520447265616420436172702C204C65FD
:104BB00061766F2E004120646561642066726F67C4
:104BC0003F204E6F2C206120646561746866726FAF
:104BD0006721005368656C6C797979206C6F6F6B15
:104BE000697420736F20637574650043726162207D
:104BF000595F282A7C7C2A295F5920004177772C2D
:104C00002061207075707079210042616C6F6F6E49
:104C10006F722E2042696969696967206E65636BEE
:104C20002E00596F2C2074686973206368696D7059
:104C30002049532061206275672E004D792C206D2C
:104C4000792E205468697320697320536174616EF2
:104C5000277320476F61742C20486572622E0048CC
:104C60006F6C79207368697421204164616D616E95
:104C7000746F697365004F6820676F73682E2E2EFE
:0C4C80000068652064696564203A280023
:1074000080E189BD82E189BD09B400FEFDCF089508
:10741000D5D569F08091E9008F931092E900AAD444
:1074200083FF01C029D58F9187708093E90008956B
:107430008EEF0090E10008220092E1000895F20131
:10744000F999FECFF2BDE1BD0895F9DFF89A80B554
:1074500008C0F5DF1FBA80BD0FB6F894FA9AF99A02
:107460000FBE31962F010895E0E0F0E085919491F0
:107470000196089572985F9A8BEA34D01092890031
:107480008AEF8093880082E080936F0083E080938E
:107490008100EFE6F7E785913AD0EB37E1F781E03D
:1074A0008093D7008AE482BF1092D8001092E20045
:1074B0001092DA001092E10080E808D019BC1EBAE0
:1074C0001092E0006DD489E05ED481E98093D80009
:1074D0000895A3E6B1E090E81AD08D939A95E1F76C
:1074E000089586E008D010C083E005D08F2F0FD01C
:1074F0008E2F0DD080E05E9A729809C005D085E08D
:10750000FADF05D080FDFDCF729A5E9808958EBD9A
:107510008DB587FFFDCF8EB508958FE08221E9F705
:10752000F3DFE3E6F6E090EB5C98892FF0DF80E193
:10753000EEDF5C9A8191EBDF83E68E278F77D1F7C0
:107540009395983B89F70895E3E6F1E097FC36C000
:1075500094FC4DC092FE089596849920D1F3F8943E
:10756000C089D78520E030E080E090E4AFEFBFEF46
:10757000119689199040E0F72D01BD4F8D0127FD2F
:1075800013C0E0E0F8E011928EE7819392E4E117F6
:1075900091939AE508F092E4E334C9F7819310825D
:1075A000BFDFFE012196A0DF94DFF9010AD5205844
:1075B0003F4F040D151D9A9411F71BC28301282D0E
:1075C00060906C0170906B0143D019F48823C1F76F
:1075D0000895380188243CD0C9F580916A0182174A
:1075E00009F4830160906E0170906D01F4CF80E129
:1075F000982E60906E0170906D012AD059F4882306
:10760000B1F708959FEF95FC03C096FE089591E0B1
:1076100097FB890E662477248301222719D0B1F4C1
:107620008823A1F380916A0136F0881650F48217FE
:1076300030F0213003C0881520F4281710F483019E
:10764000282F60906E0170906D01E8CF3801822E76
:10765000F3014ADF3EDFC3E6D1E0E8E6F7E7099051
:107660008591081621F4EF36D1F7088080104CCFB1
:10767000C9E031DFCA95E9F7D0E195FC1FC094FC61
:1076800038C096FC01C051C0C3E6D2E0E3E6F6E0A4
:1076900098E088E78E0F00840192E817E1F7884FA1
:1076A00009900192E817E1F7C858DF4F9A9589F7DA
:1076B00034DFC85FD340C33E49F749C0C3E6D6E0D4
:1076C000EBE5FAE098E08E2F885702900086E817E5
:1076D000E1F738960A900292E817E1F73897C85711
:1076E000D0409A9581F719DFC850DC4FC33E41F76F
:1076F0002EC0A3EEB6E0E3E6F6E09AE0C6E00D9019
:1077000080818025807F802582958193A336B9076B
:1077100009F4B2E0E336F90709F4F2E0E336FC07D6
:1077200071F7FBDEDA9529F712C0A3EEB9E0E3E6C4
:10773000FAE092E00E90829180258F7080258295EC
:107740008083E336F907B1F7E8DEDA9571F7882729
:10775000089580E880BF8DEA8093640089E9809372
:10776000650085E083BF889541524455424F59D505
:10777000F08D14A1C881CFD9F1AF000000FFFFCF79
:10778000CFFFFFFFFFCFCFFFFF0000FE067E7E068C
:10779000FE46565616FE0656461EFE3F61E9E3FFBC
:1077A000E3EBE3FFE3EBE3FFE16B3F0012011001CA
:1077B0000200000841233600010000000001090218
:1077C0003E000201008032090400000102020100B3
:1077D0000524001001042402040524060001070505
:1077E00082030800FF09040100020A0000000705E7
:0C77F000040210000107058302100001D4
:1078000011241FBE04B714BE88E18093600010925B
:1078100060008EEF9AE09EBF8DBF222433242101A9
:107820003101410180E88AC00F928F939F931F928C
:107830000FB60F9211244F936F938091DA0080FF5F
:1078400037C023C00F920FB68F939F93EF93FF9390
:1078500088278093850080938400E0E5F1E09281A1
:10786000907261F490818917980B908309F45D9A66
:1078700091818917980B918309F4289A239411F424
:107880008315381EFF91EF9154C08091D80080FF7E
:107890000FC08091DA008E7F8093DA008091D9004A
:1078A00080FF04C0ADDD81E08EBB02C019BC1EBAF2
:1078B0008091E10080FF0BC060D280FF08C060D2E1
:1078C0008091D800806202DE19BC85E08EBB809179
:1078D000E10084FF1AC051D284FF17C091DD80916E
:1078E000D8008F7DF3DD8FEEA4DD47D28F7E8160DF
:1078F0004AD280915301882331F48091E30087FDBF
:1079000002C081E001C084E08EBB8091E10083FF72
:107910000CC033D283FF09C087EF8BDD82E08EBBC2
:107920001092530185DD2CD23BD26F914F910F9075
:107930001F909F918F910FBE0F90189580936100BB
:1079400010926100B1E0B5BF82E085BF81EF85B9DB
:1079500087EE84B984E08DB984E48EB910BA83EFE0
:1079600081BB80E68BB980EF8AB980E58CBDBDBD57
:10797000A0E0ECEAF7E705900D92A035E1F78C91D5
:107980001D92BB30E1F7893B11F4ACDDE2CE000083
:1079900004C07C9B02C068DD61F56CDD789458DE24
:1079A00071F0ABE9B7E0EBE7F7E790E105900D92F6
:1079B0009A95E1F7A059BF4FEB3AB9F7B2DD56D02F
:1079C00027DD80915201807881F48FB18095807F8E
:1079D00066991C9B8460982E15DE89EB8825809320
:1079E000FF0A8110B1DD92FC02C0332042F73CDD7A
:1079F00031F3F89489EB76DD81E08093E00010921A
:107A00006F0010928100109285001092840081E036
:107A100085BF15BE2E9A2F9A2D9A5D9A289A0C949E
:107A20000000A6D107C057D102C0C8D239F0A2D1F8
:107A300082FFFBCF85FFF7CF8091F1000895082EDC
:107A400083E097D185FD07C08CD102C0B7D269F021
:107A500091D180FFFBCF0092F100809152018072A2
:107A600021F45D9884E680935001089581D182FFCE
:107A700034C180915201807221F4289884E6809369
:107A80005101CFDF182F853431F422248EE7382EB0
:107A9000D6DC8DE00BC1843511F4C3DFFACF8C3412
:107AA000C1F38035B1F3843721F484E4C8DF80E08A
:107AB000FDC0813611F489E5F9C0813429F4B1DFC4
:107AC000582EAFDF482EE5CF803711F483E5EEC0A6
:107AD000833539F4E8E6F7E78591B1DFEF36E1F772
:107AE000E6C0863521F482E3AADF80E3DFC0863773
:107AF00061F481E3669B8E5F1C9B8F5FA0DF8FB17B
:107B0000809582958F708F5BD1C08837A9F489DF0B
:107B100080935201289A84FD28985D9A83FD5D9890
:107B20002E9A81FD2E982F9A82FD2F982D9A80FDF6
:107B30002D9887FD8824ADCF8A3649F48FE9DBDCA8
:107B4000C3E0E5DC7CDFCA95E1F7DEDCB0C083375B
:107B500031F487E874DF85E972DF8EE1A7C08536EE
:107B600039F4E0E8F3E740D2E058F040E0F791CF95
:107B7000823631F489E563DF80E061DF80E896C01A
:107B8000823419F0873609F07DC033244ADFD82FBC
:107B900048DFC82F46DF082F8354843008F085C0A3
:107BA000063411F4440C551CF20110926F00173684
:107BB000B9F4033489F483E098DCA9DC8EB51EBCEB
:107BC0003EDF0DB42197D1F79FDC08C0063411F4D5
:107BD000859101C03ADC33DF2197C2F72F014AC0FB
:107BE0000334A9F4E11104C07CDC88ED7EDC86DC82
:107BF00078DC82E07ADC15DF0DB48EBDCA95D9F74A
:107C0000319686DC7BDCDA9569F72F0131C00634CA
:107C1000F1F49F01F437D8F4E7D119C002DF06343C
:107C200061F4C0FB46F0F43728F4182E81E087BFDA
:107C3000E89511243296082E0AC0043439F4DF0185
:107C4000B370AD59B94F8D93319601C002DC2197C5
:107C50002AF7043431F42F01F370FE2B49F461DC70
:107C600007C0063429F42F01F901F43708F4BAD11A
:107C70008DE0E5DE063411F45694479482E080935B
:107C80006F0015C08237E1E049F08634E0E031F062
:107C90008E34E3E019F0813531F4E2E0F0E089E080
:107CA00087BF849103C08B3111F08FE3C8DE83E07E
:107CB000BCDB57D095FF03C009C080D171F05AD00A
:107CC00080FFFBCF4ED002C079D139F053D080FF76
:107CD000FBCF84E0AADB8BE745C00895E4E5F1E043
:107CE00067E090915B0180915C01913231F0913AB3
:107CF000F1F58132E1F560D183C0823281F4819166
:107D0000805B8191844099F580915D0180FD2FC059
:107D1000F89481E08093E0001092FF0A71CD8032E8
:107D200031F54AD14BD1E9F08530D9F023D083FD2C
:107D300018C082FFF7CF04C07FDE8193615031F01D
:107D40009091F3008091F200892BB1F7C4DF6115A7
:107D500049F704C033D129F0853019F00BD080FFEA
:107D6000F9CF8EE79091E80089238093E800089589
:107D700084E05BDB8091E80008958091E200089543
:107D8000FCDF8E7F80618093E200089582E061ECE9
:107D900009D083E061E802D084E060E842E103C0FA
:107DA00080E060E042E041DB81E007D01092ED002E
:107DB0006093EC004093ED0008959091EB00892BC7
:107DC0008093EB00089560E0923029F0913029F41F
:107DD000E0E062E102C0E2E16EE3F1E0089580914B
:107DE0005B0188234CF402C0E9D0C1F3C3DF82FFFA
:107DF000FBCF71CFE3D091F3BDDF80FFFBCFB1CFDD
:107E000040916101509162014617510520F0462FC3
:107E1000611509F4A6DF50E022C0D0D061F18530B1
:107E200051F1A8DF83FD57CFA5DF82FD21C080FF80
:107E300016C03091F3002091F20006C0819180932A
:107E4000F10041502F5F3F4F411519F028303105A7
:107E5000A8F350E02830310509F451E082DF4115E4
:107E6000E1F65523D1F604C0A9D029F0853019F0E8
:107E700081DF82FFF9CF2FCFEBE5F1E0DDDD8193EC
:107E8000E336E1F72BDF76DF83FF91C080915B0162
:107E900090915C01913009F170F09330F1F09530E0
:107EA00009F444C0963009F456C0983009F460C013
:107EB000993059F767C0823841F780915F01B4DA91
:107EC0002091EB001092E90077D022952695217041
:107ED0002093F1001092F10052C0882311F08230FB
:107EE000A1F68F71823089F680915D018823D1F4EB
:107EF00020915F01277049F22093E9008091EB0007
:107F000080FF10C0933011F480E20BC080E155DF98
:107F100081E0880F2A95E9F78093EA001092EA0041
:107F200088E04BDF1092E90047D02AC0882391F403
:107F300010915D0110680FB7F8943ED050DF1ADF42
:107F400080FFFDCF1093E300103883E009F482E056
:107F50008EBB0FBF2CC08058823048F580915D01E8
:107F600090915E0130DF603011F126D049DF1FC0F3
:107F70008038E9F421D0809153018093F100F1DE43
:107F80002EDF15C0882399F490915D01923078F42A
:107F90009093530111D023DF80915301882321F462
:107FA0008091E30091E087FD94E09EBBEFDEE2DE8E
:107FB00083FF089580E201DF87EFD4CE8EB388235C
:107FC0000895A3E6B1E0F437B8F40ED090E40D9034
:107FD0001D9081E087BFE89532969A95C1F71124EC
:107FE000E058F04085E001C083E001D081E187BF27
:107FF000E89507B600FCFDCF08953230E4CFFBDCF6
:00000001FF
