:100000000C946C030C9494030C9494030C9494033C
:100010000C9494030C9494030C9494030C94940304
:100020000C9494030C9494030C94D8070C944708F4
:100030000C9494030C9494030C9494030C949403E4
:100040000C9494030C94CB0B0C9494030C94940395
:100050000C9494030C9494030C9494030C94790AD8
:100060000C9494030C9494030C9494030C949403B4
:100070000C9494030C9494030C9494030C949403A4
:100080000C94C30A0C9494030C9494030C9494035E
:100090000C9494030C9494030C9494030C94940384
:1000A0000C9494030C9494030C94940300000000AB
:1000B000003E5B4F5B3E3E6B4F6B3E1C3E7C3E1CEE
:1000C000183C7E3C181C577D571C1C5E7F5E1C0034
:1000D000183C1800FFE7C3E7FF0018241800FFE7EB
:1000E000DBE7FF30483A060E2629792926407F05AE
:1000F0000507407F05253F5A3CE73C5A7F3E1C1CC4
:1001000008081C1C3E7F14227F22145F5F005F5F83
:1001100006097F017F006689956A6060606060946F
:10012000A2FFA29408047E040810207E2010080874
:100130002A1C08081C2A08081E101010100C1E0C7F
:100140001E0C30383E3830060E3E0E060000000011
:100150000000005F00000007000700147F147F14F8
:10016000242A7F2A1223130864623649562050003D
:1001700008070300001C2241000041221C002A1C29
:100180007F1C2A08083E0808008070300008080814
:100190000808000060600020100804023E51494534
:1001A0003E00427F400072494949462141494D3352
:1001B0001814127F1027454545393C4A49493141B9
:1001C000211109073649494936464949291E000087
:1001D00014000000403400000008142241141414DC
:1001E0001414004122140802015909063E415D59C8
:1001F0004E7C1211127C7F494949363E41414122D1
:100200007F4141413E7F494949417F090909013EFA
:10021000414151737F0808087F00417F4100204021
:10022000413F017F081422417F404040407F021C33
:10023000027F7F0408107F3E4141413E7F0909094A
:10024000063E4151215E7F09192946264949493216
:1002500003017F01033F4040403F1F2040201F3FDC
:100260004038403F63140814630304780403615961
:10027000494D43007F4141410204081020004141A3
:10028000417F04020102044040404040000307084F
:100290000020545478407F2844443838444444284B
:1002A000384444287F385454541800087E090218F2
:1002B000A4A49C787F0804047800447D400020407A
:1002C000403D007F1028440000417F40007C0478BE
:1002D00004787C080404783844444438FC18242406
:1002E0001818242418FC7C08040408485454542486
:1002F00004043F44243C4040207C1C2040201C3C03
:100300004030403C44281028444C9090907C4464F9
:10031000544C44000836410000007700000041368C
:10032000080002010204023C2623263C1EA1A16112
:10033000123A4040207A3854545559215555794144
:100340002154547841215554784020545579400C1B
:100350001E527212395555555939545454593955FC
:100360005454580000457C410002457D420001453F
:100370007C40F0292429F0F0282528F07C545545AC
:10038000002054547C547C0A097F4932494949323F
:100390003248484832324A4848303A4141217A3A54
:1003A00042402078009DA0A07D39444444393D401E
:1003B00040403D3C24FF2424487E4943662B2FFCCB
:1003C0002F2BFF0929F620C0887E09032054547979
:1003D000410000447D413048484A32384040227A4A
:1003E000007A0A0A727D0D19317D2629292F2826C7
:1003F0002929292630484D402038080808080808CF
:100400000808382F10C8ACBA2F102834FA00007B27
:10041000000008142A142222142A1408950022002D
:1004200095AA005500AAAA55AA55AA000000FF00E7
:10043000101010FF00141414FF001010FF00FF1024
:1004400010F010F0141414FC001414F700FF000056
:10045000FF00FF1414F404FC141417101F10101FD5
:10046000101F1414141F00101010F0000000001FC3
:10047000101010101F10101010F010000000FF10CE
:100480001010101010101010FF10000000FF1400CA
:1004900000FF00FF00001F10170000FC04F41414FC
:1004A0001710171414F404F40000FF00F7141414C8
:1004B00014141414F700F7141414171410101F1048
:1004C0001F141414F4141010F010F000001F101F6B
:1004D0000000001F14000000FC140000F010F010D9
:1004E00010FF10FF141414FF141010101F00000050
:1004F00000F010FFFFFFFFFFF0F0F0F0F0FFFFFF54
:100500000000000000FFFF0F0F0F0F0F38444438AA
:10051000447C2A2A3E147E02020606027E027E02E5
:1005200063554941633844443C04407E201E200604
:10053000027E020299A5E7A5991C2A492A1C4C7241
:1005400001724C304A4D4D303048784830BC625AC8
:10055000463D3E494949007E0101017E2A2A2A2A58
:100560002A44445F444440514A444040444A514034
:100570000000FF0103E080FF000008086B6B0836F5
:1005800012362436060F090F060000181800000066
:100590001010003040FF0101001F01011E00191D55
:1005A0001712003C3C3C3C0000000000F0F89C8E20
:1005B0008783878E9CF8F00000FEFF03030303038C
:1005C000070EFCF80000FEFF0303030303070EFC05
:1005D000F80000FFFF00000000000000FFFF000027
:1005E000FEFF8383838383C7EE7C380000F8FC0E14
:1005F00007030303070EFCF800003F7FE0C0808084
:10060000C0E07F3FFFFF01010101010101FFFF0089
:1006100000FFFF0C0C0C0C1C3E77E3C100007FFFB9
:10062000C0C0C0C0C0E0703F1F00001F3F70E0C0EE
:10063000C0C0E0703F1F00007FFFC1C1C1C1C1E366
:10064000773E1C00001F3F70E0C0C0C0E0703F1F3D
:10065000000000000001FFFF01000000D5F08D1434
:10066000A1C881CFD9F1AF2000080B00020202001F
:100670000009040000010202000005240010010529
:100680002401010104240206052406000107058156
:100690000310004009040100020A000000070502DF
:1006A0000240000007058302400000040309041211
:1006B000010002EF020140412336800001010203E4
:1006C0000141726475696E6F204C4C430041726445
:1006D00075626F790000640C11241FBECFEFDAE061
:1006E000DEBFCDBF11E0A0E0B1E0E6E2FEE102C076
:1006F00005900D92A433B107D9F725E0A4E3B1E04A
:1007000001C01D92A73DB207E1F713E0CCE6D3E0AC
:1007100004C02197FE010E94060FCB36D107C9F70E
:100720000E94810C0C94110F0C940000E1E8F1E0A0
:10073000A0E0B8E000800EBC8111012C1197A0FD53
:10074000FDCF0192B9F70DB40895FC0180918001AD
:10075000882311F13FB7F89482E08093E90020915B
:10076000F200822F90E01816190614F481E090E050
:10077000882339F0289844E640937F014091F100A6
:100780004083222339F02091F200211103C02BE68F
:100790002093E8003FBF08958FEF9FEF08952FB794
:1007A000F89483E08093E9009091E800892F8072AB
:1007B00095FF04C09091F20080E4891B2FBF08953B
:1007C0008091770181110DC082E08093730184E0F4
:1007D00080937401109276011092750181E08093EC
:1007E000770183E791E00895CF93DF931F92CDB710
:1007F000DEB76983DC01ED91FC910280F381E02D8D
:1008000041E050E0BE016F5F7F4F09950F90DF918F
:10081000CF91089583E08093E9008091F2008823CE
:1008200019F08AE38093E80008950E94CF0390E0D6
:100830000895CF93DF931F92CDB7DEB7FC01848577
:10084000958597FD08C02FEF3FEF358724870F90E0
:10085000DF91CF910895CE0101960E94A5030197E3
:1008600019F4898190E0F3CF8FEF9FEFF0CF0F93D2
:100870001F93CF93DF931F92CDB7DEB78C01FC019E
:100880008485958597FF0BC0CE0101960E94A50334
:10089000019771F4898190E0F80195878487F801C8
:1008A000848595850F90DF91CF911F910F910895C9
:1008B0008FEF9FEFF1CFFC018485958597FD0BC0ED
:1008C0009FB7F89482E08093E9008091F2009FBF87
:1008D00090E0019608959FB7F89482E08093E90034
:1008E0008091F2009FBF90E0089540916D0150917A
:1008F0006E0120916B0130916C0142175307B4F4E3
:100900009091E8009570E1F39091E80092FD19C094
:100910008093F10080916D0190916E0101968F732B
:100920009927892B19F48EEF8093E80080916D014F
:1009300090916E01019690936E0180936D0181E01C
:10094000089580E00895DF92EF92FF920F931F9336
:10095000CF93DF93D82E8A01EB017B01E40EF51EC5
:10096000CE15DF0559F0D7FE12C0FE0184910E941A
:10097000750421968111F4CF0FEF1FEFC801DF91AD
:10098000CF911F910F91FF90EF90DF900895888194
:10099000EECF0F931F93CF93DF931F92CDB7DEB7A8
:1009A00082E0898342E450E069E676E080E80E94D4
:1009B000A3040E94E003DC0112960D911C91011525
:1009C000110589F0D801ED91FC910280F381E02DB1
:1009D000BE016F5F7F4FC801099597FD04C0F80104
:1009E00000851185ECCF89810F90DF91CF911F9108
:1009F0000F910895615030F02091F100FC012083A7
:100A00000196F8CF289884E680937F010895AF92ED
:100A1000BF92CF92DF92EF92FF920F931F93CF93EB
:100A2000DF936C017B018B01040F151FEB015E014D
:100A3000AE18BF08C017D10759F06991D601ED91E2
:100A4000FC910190F081E02DC6010995892B79F781
:100A5000C501DF91CF911F910F91FF90EF90DF9033
:100A6000CF90BF90AF9008950DB407FEFDCF8EB527
:100A7000599A08950E943F05982F0C9434050DB49F
:100A800007FEFDCF8EB51EBC08950E943F05982F2E
:100A90000C943F0559980E948606862F0E94860670
:100AA000852F0E948606842F0C94860680E090E0B5
:100AB000A0E0482F50918105590F609182056A1F6F
:100AC00083E00E944A051EBC08954F925F926F9288
:100AD0007F928F929F92AF92BF92CF92DF92EF92CE
:100AE000FF920F931F93CF93DF935C016B010E94E2
:100AF00056050E944505182FE82EF92E0E943A054A
:100B0000EC01C7018A0D9B1D181619060CF0E4C0F4
:100B100020E8A216B1040CF0DFC09E012C0D3D1D93
:100B2000121613060CF0D8C040E4C416D1040CF021
:100B3000D3C0B7FE0BC0882499248A189B08F12FD4
:100B4000F8198038910554F0F0E808C0F0E8FA1977
:100B5000813891050CF4F12F912C812CD7FECDC05A
:100B6000002711270C191D09087FCE01801B910B4E
:100B7000EC2FE01B813491052CF02C2D2195277052
:100B8000E0E4E20F159507951595079515950795DE
:100B9000CE01079696958795969587959695879514
:100BA000C401092C000CAA0B2C016A2E24E0420E71
:100BB000511C611C980140E0B7010F2C000C880B00
:100BC0000E94FC0E460E571E681EC60123E0959536
:100BD00087952A95E1F7080F41E0C1FC44E0C0FC8D
:100BE000440FC2FC429520E80203D0011124AA0D53
:100BF000BB1DA80DB91DAF57BE4F862C320130E08A
:100C0000599883E08EBD8091810590918205870D72
:100C1000981D0DB407FEFDCF9EBD0DB407FEFDCFA0
:100C20008EBD0DB407FEFDCF6EBC6E0C7F1C811C0B
:100C30000DB407FEFDCF1EBC330F073014F408942B
:100C400040FD8894379552E0E1FD58E0E2FD529571
:100C5000E0FF56955A9511F0E8300CF05FEF9F2FAA
:100C60000EB41EBC33FD0526852F30FD802D32FDD0
:100C70000024049EB00134FB36F4C895C8951124B5
:100C80000EB41EBC30FD082E049E003034F08C9152
:100C900031FF6827602168276C93A058BF4F37FF4A
:100CA00006C08C9131FF7827712178277C9311241D
:100CB00035FDA15835FFAF57B1099A9589F68F2FA9
:100CC00035FF81958058A80FB11DE85003950DB4EC
:100CD000599A1E160CF494CFDF91CF911F910F916A
:100CE000FF90EF90DF90CF90BF90AF909F908F904C
:100CF0007F906F905F904F900895E0E4EC1921345D
:100D000031050CF4EC2F10E000E042CF8EBD000066
:100D10008EB50DB407FEFCCF0895FC010E94240798
:100D2000319728F068517C4F8F4F9F4FF9CFAB011F
:100D3000FC010E942407641775078E079F07C8F3FC
:100D400008958F929F92AF92BF92CF92DF92EF92CF
:100D5000FF920F931F93CF93DF936C017B018A0166
:100D600080910B01882309F45AC080918001882367
:100D700009F455C08091720180FF05C08091E000A8
:100D800082608093E000E801B12C8AEFA82E93E006
:100D9000892E2AE3922E209711F4BB20C9F10E94DC
:100DA000CF03811108C0AA94AA20C9F181E090E084
:100DB0000E948D06F0CF8C171D0611F00CF08C2FC1
:100DC0009FB7F8948092E9002091E80025FD02C0C9
:100DD0009FBFE1CF282F30E0C21BD30BF70181501A
:100DE00020F041914093F100FACFE20EF31EBB20B8
:100DF00021F09092E800B12CEBCF8091E80085FDC6
:100E0000E7CF9092E800BB24B394209709F3F3CF87
:100E10005D9884E680937101101611063CF081E024
:100E200090E0F6019383828310E000E0C801DF9137
:100E3000CF911F910F91FF90EF90DF90CF90BF90D7
:100E4000AF909F908F900895A6E5B1E02FB7F894EA
:100E50007D918D919C9166B52FBFA89B05C06F3F7A
:100E600018F47F5F8F4F9F4F22E0660F771F881F18
:100E7000991F2A95D1F7089590E00C948D068FB1B3
:100E80008095807F669B88601C9B846008956F922C
:100E90007F928F929F92AF92BF92CF92DF92EF920A
:100EA000FF920F931F93CF93DF9300D01F92CDB784
:100EB000DEB76D3089F0A0905A01B0905B016A30C6
:100EC000F9F410925D0110925C019501285F3F4F8B
:100ED00030935B0120935A0181E090E00F900F90D6
:100EE0000F90DF91CF911F910F91FF90EF90DF90C6
:100EF000CF90BF90AF909F908F907F906F9008950C
:100F000000915C0110915D0135E0639FF0011124B7
:100F1000E455FF4FA801712C80E1682E98E0D92E8E
:100F2000DA0C75E060E0771621F0CF01019664914C
:100F3000FC01C50140385105D0F480349105B8F466
:100F4000A62FA170CA2E9C0171E021FD74E020FD46
:100F5000770F22FD7295287F629ED0011124A40F85
:100F6000AF57BE4F0C90072AC0FE07260C9266951D
:100F70000196D812DFCF73944F5F5F4F86E07812EF
:100F8000D0CF0A5F1F4F10935D0100935C01A4CF87
:100F9000CF93C82F0E943F07982F9C2381E09C137A
:100FA00080E0CF9108950895089590E080E008953D
:100FB0001F920F920FB60F9211248F939F938091DF
:100FC000E1009091E100937F9093E10083FF0FC0D7
:100FD0001092E90091E09093EB001092EC0092E304
:100FE0009093ED001092800198E09093F00082FFC2
:100FF00022C093E09093E9009091F200992319F0B8
:101000009AE39093E80090917101992341F09091B7
:101010007101915090937101911101C05D9A90916D
:101020007F01992341F090917F01915090937F012E
:10103000911101C0289A84FF18C08091E2008E7E31
:1010400081608093E2008091E1008F7E8093E100D7
:10105000809172018E7E8061809372019F918F9149
:101060000F900FBE0F901F90189580FFF7CF8091C3
:10107000E2008E7E80618093E2008091E1008E7EAE
:101080008093E100809172018E7E8160E5CF1F9296
:101090000F920FB60F921124CF92DF92EF92FF9230
:1010A0000F931F932F933F934F935F936F937F9370
:1010B0008F939F93AF93BF93EF93FF93CF93DF9360
:1010C000CDB7DEB76C97DEBFCDBF1092E90080913F
:1010D000E80083FF25C068E0CE0145960E94FA042F
:1010E00082EF8093E8008D8987FF39C09091E800F6
:1010F00090FFFCCF982F907609F034C19E894F89DC
:10110000588D2F89F88C911131C0803861F580910C
:1011100070018093F1001092F1008EEF8093E8004F
:101120006C960FB6F894DEBF0FBECDBFDF91CF91A6
:10113000FF91EF91BF91AF919F918F917F916F91AF
:101140005F914F913F912F911F910F91FF90EF90E1
:10115000DF90CF900F900FBE0F901F9018959EEFCD
:101160009093E800C7CF1092F100D5CF913059F499
:101170008111D3CF4130510581F6809170018D7F6F
:1011800080937001CACF933049F48111C6CF4130AA
:10119000510519F6809170018260F2CF953041F4CB
:1011A0008091E80080FFFCCF20682093E300B5CF5A
:1011B000963009F0A9C00B8D1C8D22E01092E90039
:1011C00010926E0110926D01F2122EC010926C01FD
:1011D00010926B010E94C9041F8299E09983FA82E0
:1011E00091E09E8390EA98879AEF998720916D010C
:1011F00030916E01275F3F4F3C832B838D8310928C
:10120000E90010926E0110926D0110936C01009331
:101210006B0149E050E0BE016F5F7F4F80E00E94AC
:10122000A3040E94C90479CF10936C0100936B0151
:101230000E94E003DC0112960D911C91011511052D
:1012400009F451C1D801ED91FC910480F581E02DA4
:10125000BE016B5E7F4FC8010995009709F03EC142
:10126000F80100851185EACFF3E0FF120EC08F89E7
:10127000882309F440C0823061F440E867E08DECD7
:1012800096E00E94310C811148CF81E28093EB00FF
:1012900047CF813029F440E86BE081EC96E0F1CF54
:1012A000833099F70E94E003DC011296ED90FC90E8
:1012B0008E010F5F1F4F6801E114F10479F0D7012F
:1012C000ED91FC910680F781E02DB801C7010995E9
:1012D000080F111DF701E084F184EECFD8011C92B4
:1012E000F60101900020E9F73197BF016C197D09E3
:1012F00040E0C601C6CF6BEA76E0FB01449150E0C6
:1013000080E80E94A30409CF973009F4BECF98303B
:1013100021F481E08093F10000CF993009F0FDCEF7
:10132000837009F0B2CFEFE0F1E081E031E096E3C5
:101330002191222371F08093E9003093EB00DF01CB
:1013400011972C912093EC009093ED008F5F8730E4
:1013500079F78EE78093EA001092EA008F898093F4
:101360008001DBCE8B8D9C8D1092E90010926E0176
:1013700010926D0190936C0180936B01898D8111A6
:1013800092C08E899D89913A49F4813209F07DCFCE
:1013900047E050E064E071E080E0B3CF913209F0C3
:1013A00074CF833269F48F89988DB0E0A0E0809388
:1013B000000190930101A0930201B0930301ADCE0F
:1013C000803269F48091E80082FFFCCF67E084E01E
:1013D00091E00E94FA048BEF8093E8009ECE823267
:1013E00009F09BCE8F8980930B01EEEFFFE785918B
:1013F00094918B3F9C4D51F1E0E0F8E08091040125
:1014000090910501A0910601B0910701803B9440A5
:10141000A105B105F1F480910B0180FD1AC0EE3FEA
:101420008AE0F80789F587E797E7918380838091C1
:10143000600080936F0188E19BE00FB6F894A89557
:10144000809360000FBE9093600067CEEEEFFAE0ED
:10145000D5CF808191818737974709F05ECEA895D7
:101460008091600088618093600080916F0180931B
:101470006000EE3F2AE0F20789F08091FE0A909129
:10148000FF0A9183808349CE8081918187379807B5
:1014900051F29093FF0A8093FE0AC5CF1092FF0A83
:1014A0001092FE0A3ACE0E94E003DC0112960D91E2
:1014B0001C910115110509F4E8CED801ED91FC91BC
:1014C0000190F081E02DBE016B5E7F4FC801099550
:1014D000811123CEF80100851185EBCF181619066E
:1014E0000CF41BCED2CEF1E0FF12BECE6FEA76E056
:1014F00004CF0F920FB68F939F93EF93FF9380913A
:1015000055018D5F8D3708F08D5780935501E2E6C8
:10151000F1E080818E4F808391819F4F9183828102
:101520008F4F828383818F4F8383E6E5F1E0808153
:101530008F5F808381818F4F818382818F4F8283F0
:1015400083818F4F83838FB18F6066991C9B88271F
:101550008F3681F480915401981B963068F0E0E05A
:10156000F8E087E78083818388E180936000F093CF
:101570006000FFCF90935401FF91EF919F918F9165
:101580000FBE0F9018951F920F920FB60F92112455
:101590002F933F934F935F936F937F938F939F937B
:1015A000AF93BF93CF93EF93FF9380915301882321
:1015B00079F08091520181110BC08091510181110C
:1015C00007C090915001809100008927809300000E
:1015D00080914F01882309F4AAC080914B0190911A
:1015E0004C01A0914D01B0914E01892B8A2B8B2B80
:1015F00009F49DC080914B0190914C01A0914D0147
:10160000B0914E010197A109B10980934B019093CC
:101610004C01A0934D01B0934E01892B8A2B8B2B4B
:1016200009F085C0C1E080914A01811192C0E0912A
:101630004801F0914901AF014F5F5F4F509349015D
:10164000409348012491822F807F803829F52F70A4
:10165000E22FF0E0E45FFE4F8081813059F083306B
:1016600011F710925301809152018111DCCF8091CA
:1016700050010BC0809144018111D5CF80916F0042
:101680008D7F80936F008091430190910000809541
:10169000892380930000C7CF8039B1F4F0E0E0E007
:1016A00009958C278093510180914A01811151C085
:1016B000E0914801F0914901CF01019690934901D1
:1016C00080934801E491AFCF87FD58C080914A01D3
:1016D00081113FC03296F0934901E0934801FA012D
:1016E0004491A0914501B0914601322F242F0E94D0
:1016F000ED0E6C507E4F8F4F9F4F28EE33E040E051
:1017000050E00E94CB0E20934B0130934C0140934C
:101710004D0150934E0180914B0190914C01A0914D
:101720004D01B0914E01892B8A2B8B2BD1F0FF916B
:10173000EF91CF91BF91AF919F918F917F916F91D9
:101740005F914F913F912F910F900FBE0F901F907F
:101750001895E09147010E2E000CFF0B80810E942E
:101760000C0F81E090E0A0E0B0E080934B019093FB
:101770004C01A0934D01B0934E01D9CF803E29F486
:1017800010924901109248014ECF803F09F04BCF93
:1017900010924F01CCCF1F920F920FB60F921124CF
:1017A0008F939F93AF93BF9380914401882309F453
:1017B0004EC080913F0190914001A0914101B091B4
:1017C0004201892B8A2B8B2B81F1909143018091CF
:1017D000000089278093000080913F019091400193
:1017E000A0914101B0914201181619061A061B0674
:1017F0009CF480913F0190914001A0914101B091F2
:1018000042010197A109B10980933F0190934001E2
:10181000A0934101B0934201BF91AF919F918F91ED
:101820000F900FBE0F901F901895109252011092BA
:10183000440180916F008D7F80936F008091430100
:10184000909100008095892380930000E5CF8091DE
:1018500051018111E1CF90914301809100008927CE
:10186000F3CFEF92FF920F931F93CF93DF93F82E56
:10187000192FE62E042F81E0860F880F0E94750431
:1018800083E00E947504CF2DD12FEC0EFD2EF11CAC
:10189000CE15DF05B9F007FF13C0FE0184910E9449
:1018A0007504182F80E00E94750481232196811110
:1018B000EFCFDF91CF911F910F91FF90EF9008959F
:1018C0008881EDCF81E0F5CFE3E8F5E01382128265
:1018D00088EE93E0A0E0B0E084839583A683B7838D
:1018E00089E191E0918380838FEF9FEF95878487D3
:1018F000E3EDF5E0138212828BE291E09183808325
:101900000895789483E084BD83E085BD81E0809371
:101910006E00E1E8F0E083E08083E0E881E080832E
:10192000E1E983E08083E0E981E08083E1EC87E026
:101930008083E3EC81E08083E0EC82E08083E2EC72
:1019400081E08083EAE787E080838068808310926B
:10195000800110927001109272018091D700816015
:101960008093D70080EA8093D80089B5806189BDD3
:1019700089B5826089BD09B400FEFDCF81E090E0A9
:101980000E948D068091D8008F7C80618093D80062
:101990008091E000807F8093E0008091E1008E7E66
:1019A0008093E1008DE08093E200559A209A81ECCB
:1019B00080937C0081EF85B987EE84B982E38BB98F
:1019C00082EF8AB9769A6E9880EF81BB10BA80E573
:1019D0008CBD81E08DBD85E00E943C075F9A85E06B
:1019E0000E943C075C98ECE5F6E085918EBD000016
:1019F0000DB407FEFDCFE936C1F75C9A81E880930C
:101A0000640081E08093650080E00E94960380E896
:101A10000E94C8078823A9F05C9885EA8EBD000063
:101A20000DB407FEFDCF5C9A2E982F982D988091CB
:101A3000640080628093640081E083BF889513BE58
:101A4000FCCF84E00E94C8078823B9F12D9884E870
:101A50000E94C8078823A1F02D9A88EC0E943C07B9
:101A60002F986FEF82E090E00E94B90E84EF91E032
:101A70000E948D062F9A84E80E94C8078111FBCF2F
:101A800084E10E94C8078823A1F02D9A88EC0E9467
:101A90003C072E9860E082E090E00E94B90E84EF4F
:101AA00091E00E948D062E9A84E10E94C807811160
:101AB000FBCF88EC0E943C07C4CF2D9A82E090E0D7
:101AC0000E94B10E882309F448C03E9A3F9A81E0F3
:101AD00090E00E94B10E182F147081FF0CC01111FC
:101AE0002E98C1EFDFEF80E40E94C807882309F435
:101AF00037C02E9A2F9A82E30E943C070E943F072C
:101B00008111F9CF5E9A5E9AE4E1F0E08DEF9FEFEC
:101B100025913591559145912851354909F4CA01CE
:101B2000809381059093820559988BEA0E948606DE
:101B3000599AFF24F3940EE511E0C0E0D0E0EE24C2
:101B4000E39480916001882309F4A6C0109260019B
:101B50002097B9F30E940000F4CF3E983F98B7CF8A
:101B6000112329F0C430D10511F42E9A2F9881E069
:101B70000E9496030C2F0770A02EAE0183E05595AE
:101B800047958A95E1F7CA019695982F88279795EA
:101B900087958F579E4F70E060E04E3F2FEF5207C2
:101BA00069F130E020E0DB01A455BA4F7C01E0E8A8
:101BB000EE0EF11CFD01E20FF31FE491F0E04F0186
:101BC0000A2C02C0880C991C0A94E2F74F3F540774
:101BD00039F06C01C20ED31EF601B488B828B48A5D
:101BE000AA2039F06701C20ED31EF6010489092923
:101BF000048B2F5F3F4F28353105E1F64F5F5F4F74
:101C000080589F4F685A7F4F603B710531F680E0E6
:101C10000E9496038FE00E943C072196C931D105AE
:101C200009F061CF112311F02F9A2D9880E991E0EE
:101C30000E948D062D9A81E090E00E94B10E80FFF7
:101C40005ACF8AE090E00E94B10E9FEF980F9E3F1E
:101C500008F051CF22E330E030935D0120935C0126
:101C600028E330E030935B0120935A01CAE0D0E0D2
:101C7000682F83ED95E00E9447072196CE010E94D0
:101C8000B10EC031D105A1F780E00E94960388EE25
:101C900093E00E948D062FCF8091620190916101A7
:101CA000F82FF91BF03138F4FF3009F451CFF3BEAF
:101CB000889513BE4DCFE092600180936101F801D9
:101CC000808191810196808391830E943F07809358
:101CD000660180E20E94C807882349F0809169016B
:101CE00090916A01019790936A018093690180E85D
:101CF0000E94C807882349F080916701909168018C
:101D00000197909368018093670180E10E94C80762
:101D1000882349F080916701909168010196909322
:101D200068018093670180E40E94C807882349F016
:101D30008091690190916A01019690936A01809364
:101D400069016091670170916801809169019091CA
:101D50006A010E9465055E9881E00E9496035E9A82
:101D6000F7CEF999FECF92BD81BDF89A992780B53B
:101D70000895262FF999FECF92BD81BDF89A01975B
:101D800000B4021639F01FBA20BD0FB6F894FA9AC3
:101D9000F99A0FBE0895A1E21A2EAA1BBB1BFD01E2
:101DA0000DC0AA1FBB1FEE1FFF1FA217B307E4073A
:101DB000F50720F0A21BB30BE40BF50B661F771F92
:101DC000881F991F1A9469F7609570958095909572
:101DD0009B01AC01BD01CF010895A29FB001B39F4B
:101DE000C001A39F700D811D1124911DB29F700D24
:101DF000811D1124911D0895DB01582F0E94ED0EC5
:101E0000529F800DA49F800D11240895EE0FFF1F97
:101E10000590F491E02D099481E090E0F8940C9401
:061E2000110FF894FFCF42
:101E2600FFFFFFFF00E1000000000000030100C10A
:101E3600808100000000000000F403A10615040ADA
:101E4600045B04190437040000000047070705D5A2
:041E560007D40700A6
:00000001FF
