:100000000C941B030C9443030C9443030C94430380
:100010000C9443030C9443030C9443030C94430348
:100020000C9443030C9443030C9441080C94B008C3
:100030000C9443030C9443030C9443030C94430328
:100040000C9443030C9443030C9443030C94430318
:100050000C9443030C9443030C9443030C94E20A62
:100060000C9443030C9443030C9443030C944303F8
:100070000C9443030C9443030C9443030C944303E8
:100080000C942C0B0C9443030C9443030C944303E7
:100090000C9443030C9443030C9443030C944303C8
:1000A0000C9443030C9443030C944303000000009E
:1000B000003E5B4F5B3E3E6B4F6B3E1C3E7C3E1CEE
:1000C000183C7E3C181C577D571C1C5E7F5E1C0034
:1000D000183C1800FFE7C3E7FF0018241800FFE7EB
:1000E000DBE7FF30483A060E2629792926407F05AE
:1000F0000507407F05253F5A3CE73C5A7F3E1C1CC4
:1001000008081C1C3E7F14227F22145F5F005F5F83
:1001100006097F017F006689956A6060606060946F
:10012000A2FFA29408047E040810207E2010080874
:100130002A1C08081C2A08081E101010100C1E0C7F
:100140001E0C30383E3830060E3E0E060000000011
:100150000000005F00000007000700147F147F14F8
:10016000242A7F2A1223130864623649562050003D
:1001700008070300001C2241000041221C002A1C29
:100180007F1C2A08083E0808008070300008080814
:100190000808000060600020100804023E51494534
:1001A0003E00427F400072494949462141494D3352
:1001B0001814127F1027454545393C4A49493141B9
:1001C000211109073649494936464949291E000087
:1001D00014000000403400000008142241141414DC
:1001E0001414004122140802015909063E415D59C8
:1001F0004E7C1211127C7F494949363E41414122D1
:100200007F4141413E7F494949417F090909013EFA
:10021000414151737F0808087F00417F4100204021
:10022000413F017F081422417F404040407F021C33
:10023000027F7F0408107F3E4141413E7F0909094A
:10024000063E4151215E7F09192946264949493216
:1002500003017F01033F4040403F1F2040201F3FDC
:100260004038403F63140814630304780403615961
:10027000494D43007F4141410204081020004141A3
:10028000417F04020102044040404040000307084F
:100290000020545478407F2844443838444444284B
:1002A000384444287F385454541800087E090218F2
:1002B000A4A49C787F0804047800447D400020407A
:1002C000403D007F1028440000417F40007C0478BE
:1002D00004787C080404783844444438FC18242406
:1002E0001818242418FC7C08040408485454542486
:1002F00004043F44243C4040207C1C2040201C3C03
:100300004030403C44281028444C9090907C4464F9
:10031000544C44000836410000007700000041368C
:10032000080002010204023C2623263C1EA1A16112
:10033000123A4040207A3854545559215555794144
:100340002154547841215554784020545579400C1B
:100350001E527212395555555939545454593955FC
:100360005454580000457C410002457D420001453F
:100370007C40F0292429F0F0282528F07C545545AC
:10038000002054547C547C0A097F4932494949323F
:100390003248484832324A4848303A4141217A3A54
:1003A00042402078009DA0A07D39444444393D401E
:1003B00040403D3C24FF2424487E4943662B2FFCCB
:1003C0002F2BFF0929F620C0887E09032054547979
:1003D000410000447D413048484A32384040227A4A
:1003E000007A0A0A727D0D19317D2629292F2826C7
:1003F0002929292630484D402038080808080808CF
:100400000808382F10C8ACBA2F102834FA00007B27
:10041000000008142A142222142A1408950022002D
:1004200095AA005500AAAA55AA55AA000000FF00E7
:10043000101010FF00141414FF001010FF00FF1024
:1004400010F010F0141414FC001414F700FF000056
:10045000FF00FF1414F404FC141417101F10101FD5
:10046000101F1414141F00101010F0000000001FC3
:10047000101010101F10101010F010000000FF10CE
:100480001010101010101010FF10000000FF1400CA
:1004900000FF00FF00001F10170000FC04F41414FC
:1004A0001710171414F404F40000FF00F7141414C8
:1004B00014141414F700F7141414171410101F1048
:1004C0001F141414F4141010F010F000001F101F6B
:1004D0000000001F14000000FC140000F010F010D9
:1004E00010FF10FF141414FF141010101F00000050
:1004F00000F010FFFFFFFFFFF0F0F0F0F0FFFFFF54
:100500000000000000FFFF0F0F0F0F0F38444438AA
:10051000447C2A2A3E147E02020606027E027E02E5
:1005200063554941633844443C04407E201E200604
:10053000027E020299A5E7A5991C2A492A1C4C7241
:1005400001724C304A4D4D303048784830BC625AC8
:10055000463D3E494949007E0101017E2A2A2A2A58
:100560002A44445F444440514A444040444A514034
:100570000000FF0103E080FF000008086B6B0836F5
:1005800012362436060F090F060000181800000066
:100590001010003040FF0101001F01011E00191D55
:1005A0001712003C3C3C3C0000000000D5F08D14CC
:1005B000A1C881CFD9F1AF2000C0A0D921D5F08149
:1005C000FFA800A800A83F080B00020202000009D3
:1005D00004000001020200000524001001052401AE
:1005E0000101042402060524060001070581031009
:1005F000004009040100020A000000070502024051
:1006000000000705830240000004030904120100F2
:1006100002EF020140412336800001010203014143
:10062000726475696E6F204C4C4300417264756250
:100630006F790000760B11241FBECFEFDAE0DEBF2A
:10064000CDBF11E0A0E0B1E0EAE3FDE102C005901A
:100650000D92A233B107D9F725E0A2E3B1E001C0C2
:100660001D92A33BB207E1F713E0CBE1D3E004C056
:100670002197FE010E94950ECA31D107C9F70E9449
:100680008B0B0C949B0E0C940000FC018091620576
:10069000882311F13FB7F89482E08093E90020911C
:1006A000F200822F90E01816190614F481E090E011
:1006B000882339F0289844E6409361054091F10081
:1006C0004083222339F02091F200211103C02BE650
:1006D0002093E8003FBF08958FEF9FEF08952FB755
:1006E000F89483E08093E9009091E800892F80726C
:1006F00095FF04C09091F20080E4891B2FBF0895FC
:100700008091590581110DC082E08093550584E0E8
:1007100080935605109258051092570581E08093FA
:10072000590585E595E00895CF93DF931F92CDB7E6
:10073000DEB76983DC01ED91FC910280F381E02D4D
:1007400041E050E0BE016F5F7F4F09950F90DF9150
:10075000CF91089583E08093E9008091F20088238F
:1007600019F08AE38093E80008950E946F0390E0F7
:100770000895CF93DF931F92CDB7DEB7FC01848538
:10078000958597FD08C02FEF3FEF358724870F90A1
:10079000DF91CF910895CE0101960E944503019704
:1007A00019F4898190E0F3CF8FEF9FEFF0CF0F9393
:1007B0001F93CF93DF931F92CDB7DEB78C01FC015F
:1007C0008485958597FF0BC0CE0101960E94450355
:1007D000019771F4898190E0F80195878487F80189
:1007E000848595850F90DF91CF911F910F9108958A
:1007F0008FEF9FEFF1CFFC018485958597FD0BC0AE
:100800009FB7F89482E08093E9008091F2009FBF47
:1008100090E0019608959FB7F89482E08093E900F4
:100820008091F2009FBF90E0089540914F05509154
:10083000500520914D0530914E0542175307B4F4F1
:100840009091E8009570E1F39091E80092FD19C055
:100850008093F10080914F059091500501968F7320
:100860009927892B19F48EEF8093E80080914F052A
:100870009091500501969093500580934F0581E02B
:10088000089580E00895DF92EF92FF920F931F93F7
:10089000CF93DF93D82E8A01EB017B01E40EF51E86
:1008A000CE15DF0559F0D7FE12C0FE0184910E94DB
:1008B000150421968111F4CF0FEF1FEFC801DF91CE
:1008C000CF911F910F91FF90EF90DF900895888155
:1008D000EECF0F931F93CF93DF931F92CDB7DEB769
:1008E00082E0898342E450E067EC75E080E80E9492
:1008F00043040E948003DC0112960D911C910115A6
:10090000110589F0D801ED91FC910280F381E02D71
:10091000BE016F5F7F4FC801099597FD04C0F801C4
:1009200000851185ECCF89810F90DF91CF911F91C8
:100930000F910895615030F02091F100FC01208367
:100940000196F8CF289884E6809361050895811177
:1009500005C081E0611106C080E004C0813019F457
:100960006230D0F3089581E06330E0F7F5CFAF92C5
:10097000BF92CF92DF92EF92FF920F931F93CF938C
:10098000DF936C017B018B01040F151FEB015E01EE
:10099000AE18BF08C017D10759F06991D601ED9183
:1009A000FC910190F081E02DC6010995892B79F722
:1009B000C501DF91CF911F910F91FF90EF90DF90D4
:1009C000CF90BF90AF9008958FB18095807F669B48
:1009D00088601C9B8460089590E1282F81E061FD70
:1009E00084E060FD880F62FD8295687F969FD0014C
:1009F0001124A20FAA5BBE4F0C90082A40FF0826C4
:100A00000C920895CF93C82F0E94E404982F9C2342
:100A100081E09C1380E0CF9108950DB407FEFDCFD7
:100A20008EB5599A08950DB407FEFDCF8EB51EBC44
:100A3000089559980E943105862F0E943105852F0F
:100A40000E943105842F0C943105462F50913E01B0
:100A5000570F60913F01681F83E00E9419051EBC7B
:100A600008958EBD00008EB50DB407FEFCCF08952D
:100A7000FC010E94D305319728F068517C4F8F4FBD
:100A80009F4FF9CFAB01FC010E94D3056417750796
:100A90008E079F07C8F3089585E090E00C94380511
:100AA0008F929F92AF92BF92CF92DF92EF92FF927E
:100AB0000F931F93CF93DF936C017B018A01809189
:100AC0001701882309F45AC080916205882309F42C
:100AD00055C08091540580FF05C08091E000826080
:100AE0008093E000E801B12C8AEFA82E93E0892ED4
:100AF0002AE3922E209711F4BB20C9F10E946F03C4
:100B0000811108C0AA94AA20C9F181E090E00E9456
:100B10003805F0CF8C171D0611F00CF08C2F9FB705
:100B2000F8948092E9002091E80025FD02C09FBF63
:100B3000E1CF282F30E0C21BD30BF701815020F00A
:100B400041914093F100FACFE20EF31EBB2021F059
:100B50009092E800B12CEBCF8091E80085FDE7CFC3
:100B60009092E800BB24B394209709F3F3CF5D98EB
:100B700084E680935305101611063CF081E090E066
:100B8000F6019383828310E000E0C801DF91CF91EA
:100B90001F910F91FF90EF90DF90CF90BF90AF909B
:100BA0009F908F900895A8E3B1E02FB7F8947D91BE
:100BB0008D919C9166B52FBFA89B05C06F3F18F41F
:100BC0007F5F8F4F9F4F22E0660F771F881F991F0F
:100BD0002A95D1F708956F927F928F929F92AF924C
:100BE000BF92CF92DF92EF92FF920F931F93CF931A
:100BF000DF936D3081F000914605109147056A3012
:100C0000D9F41092490510924805085F1F4F1093C0
:100C100047050093460581E090E0DF91CF911F9159
:100C20000F91FF90EF90DF90CF90BF90AF909F908B
:100C30008F907F906F900895C62FE0904805F090B8
:100C40004905D0914C05609100018D2F0E94A704A9
:100C5000782E60E08D2F0E94A704682E78122FC096
:100C6000672D8D2F0E94A704782E570126E0A20E33
:100C7000B11CE701480188E0880E911CCA15DB050C
:100C800009F44FC0680117FF02C0D12CC12CC40168
:100C9000E1E48E16910414F080E490E0C816D906C1
:100CA00064F4C038D10528F4472DB601CE010E9466
:100CB000EC04FFEFCF1ADF0AEACF2196DFCF25E061
:100CC000C29FE0011124C455DF4F5701D12C85E0AC
:100CD000C12CD81629F0CE010196FE01C490EC017A
:100CE000912C812C462DC0FC472DF0E8AF16B104A5
:100CF00048F4B801680D791D6034710518F4C50118
:100D00000E94EC04C6942FEF821A920A88E088169B
:100D1000910441F7D394EFEFAE1ABE0AF6E0DF126A
:100D2000D6CF26E0E20EF11CF0924905E09248058C
:100D300072CFDC0130E8439FC0011124A80FB91F16
:100D4000505530E53CBD5C985EBD20D01FD000C042
:100D500080E18EBD1BD01AD019D05C9A30E73CBD23
:100D600080E80E90302D6111372F3C9334913491EF
:100D700002220EBC8A95A9F709D008D053954A954E
:100D800001F704D003D030E50DB43CBD08953F9287
:100D90004F925F926F927F928F929F92AF92BF928B
:100DA000CF92DF92EF92FF920F931F93CF93DF9337
:100DB00000D01F92CDB7DEB73A01862EA6E4B1E08F
:100DC000B701E02FDD24382E96959695969531E063
:100DD00061FD34E060FD330F62FD32955FEF539F9C
:100DE0007001E094F0947595679575956795759584
:100DF0006795462F4F3F4CF44095941B20FD440FC0
:100E0000489F600C711C8D1C4FEF17FF0BC0300EFC
:100E100020FF02C0000F111F601A710A8D0817FD14
:100E20008394EE2750E845030E0EA00DB11D5E1B06
:100E3000351608F0352E57E0541B591714F4952F2A
:100E4000D39450E85319482E552421FD02C043186D
:100E5000550820FF02C0440C551C11245B824A82B5
:100E6000932E00903E01700C00903F01801C19C031
:100E7000599833E03EBD640C751C811CAA2483156F
:100E800009F0A3940CD08EBC07D07EBC05D06EBCFC
:100E900003D01EBC03D00895C8950000C895C8951E
:100EA0000895641875088108E3DF41151CF0992343
:100EB00071F564C0A058BF4FC32C20FD0CC06EB5A7
:100EC0001EBC699DBC90BF20B128BD92C89500C0D2
:100ED000CA94A9F711C06EB51EBC699DB001DEDFD2
:100EE000EEB41EBCE99C7001BC90F094BF20B72A00
:100EF000BD92C895CA9479F71124A319B1099A959E
:100F000009F45CC0AA2019F00DB4599AB1DFFD01B3
:100F1000E058FF4FC32C20FD0EC06EB51EBC699D6E
:100F2000BC90BE20B028BD92B080BF20B128B19245
:100F3000CA9499F716C06EB51EBC699DB001BC90ED
:100F4000F080AEDF00C0EEB41EBCE99C0094B0207F
:100F5000B62ABD921094F120F72AF1920000CA94AB
:100F600051F71124A50FB11D9A9561F6DD2031F1DD
:100F7000AA2021F00DB4599A7BDFC89520FD0CC042
:100F80006EB51EBC699DBC90BE20B028BD92C895B0
:100F900000C03A94A9F712C06EB51EBC699DB0019D
:100FA0007DDF9EB51EBC999D902DBC909095B92279
:100FB000B62ABD92C8953A9479F7C8951124599AE2
:100FC0000DB40F900F900F90DF91CF911F910F9163
:100FD000FF90EF90DF90CF90BF90AF909F908F9059
:100FE0007F906F905F904F903F9008956F927F92A7
:100FF0008F92AF92CF92DF92EF92FF920F931F9357
:10100000DC01922F2A2DF92FE42F3701802EC114F5
:10101000D104A1F0969596959695A0FC990F949F72
:101020007001ED9C700C811CFC9C700C811CFD9C63
:10103000800CEC9C600C711C1124811C7B018D01C7
:10104000682DA301CF010E94C7061F910F91FF9049
:10105000EF90DF90CF90AF908F907F906F9008953A
:101060005C98FC012591CF012EBD00000DB407FE58
:10107000FDCF6150B1F75C9A0895089590E080E04B
:1010800008951F920F920FB60F9211248F939F9382
:101090008091E1009091E100937F9093E10083FFC4
:1010A0000FC01092E90091E09093EB001092EC00D9
:1010B00092E39093ED001092620598E09093F00017
:1010C00082FF22C093E09093E9009091F20099236F
:1010D00019F09AE39093E80090915305992341F019
:1010E00090915305915090935305911101C05D9AD1
:1010F00090916105992341F09091610591509093F1
:101100006105911101C0289A84FF18C08091E20006
:101110008E7E81608093E2008091E1008F7E8093DB
:10112000E100809154058E7E8061809354059F91EB
:101130008F910F900FBE0F901F90189580FFF7CFE3
:101140008091E2008E7E80618093E2008091E100D8
:101150008E7E8093E100809154058E7E8160E5CF84
:101160001F920F920FB60F921124CF92DF92EF923F
:10117000FF920F931F932F933F934F935F936F9320
:101180007F938F939F93AF93BF93EF93FF93CF93EF
:10119000DF93CDB7DEB76C97DEBFCDBF1092E9000D
:1011A0008091E80083FF25C068E0CE0145960E944B
:1011B0009A0482EF8093E8008D8987FF39C090916F
:1011C000E80090FFFCCF982F907609F034C19E89FB
:1011D0004F89588D2F89F88C911131C0803861F575
:1011E000809152058093F1001092F1008EEF809370
:1011F000E8006C960FB6F894DEBF0FBECDBFDF914E
:10120000CF91FF91EF91BF91AF919F918F917F917E
:101210006F915F914F913F912F911F910F91FF908F
:10122000EF90DF90CF900F900FBE0F901F9018950A
:101230009EEF9093E800C7CF1092F100D5CF913088
:1012400059F48111D3CF4130510581F68091520577
:101250008D7F80935205CACF933049F48111C6CF58
:101260004130510519F6809152058260F2CF9530D8
:1012700041F48091E80080FFFCCF20682093E300D8
:10128000B5CF963009F0A9C00B8D1C8D22E01092CD
:10129000E9001092500510924F05F2122EC01092E4
:1012A0004E0510924D050E9469041F8299E09983B2
:1012B000FA8291E09E8390EA98879AEF998720912D
:1012C0004F0530915005275F3F4F3C832B838D8323
:1012D0001092E9001092500510924F0510934E05A0
:1012E00000934D0549E050E0BE016F5F7F4F80E005
:1012F0000E9443040E94690479CF10934E05009325
:101300004D050E948003DC0112960D911C91011580
:10131000110509F451C1D801ED91FC910480F581CA
:10132000E02DBE016B5E7F4FC8010995009709F063
:101330003EC1F80100851185EACFF3E0FF120EC02F
:101340008F89882309F440C0823061F440E867E067
:101350008BE296E00E94430B811148CF81E280939B
:10136000EB0047CF813029F440E86BE08FE196E055
:10137000F1CF833099F70E948003DC011296ED9043
:10138000FC908E010F5F1F4F6801E114F10479F0AA
:10139000D701ED91FC910680F781E02DB801C701DE
:1013A0000995080F111DF701E084F184EECFD801F3
:1013B0001C92F60101900020E9F73197BF016C19EA
:1013C0007D0940E0C601C6CF69E076E0FB014491AB
:1013D00050E080E80E94430409CF973009F4BECF63
:1013E000983021F481E08093F10000CF993009F02A
:1013F000FDCE837009F0B2CFE9E1F1E081E031E0A8
:1014000096E32191222371F08093E9003093EB0061
:10141000DF0111972C912093EC009093ED008F5FEA
:10142000873079F78EE78093EA001092EA008F897F
:1014300080936205DBCE8B8D9C8D1092E90010921B
:10144000500510924F0590934E0580934D05898D60
:10145000811192C08E899D89913A49F4813209F0B7
:101460007DCF47E050E060E171E080E0B3CF9132A2
:1014700009F074CF833269F48F89988DB0E0A0E0D1
:1014800080930C0190930D01A0930E01B0930F0176
:10149000ADCE803269F48091E80082FFFCCF67E036
:1014A00080E191E00E949A048BEF8093E8009ECE49
:1014B000823209F09BCE8F8980931701EEEFFFE710
:1014C000859194918B3F9C4D51F1E0E0F8E0809143
:1014D000100190911101A0911201B0911301803B74
:1014E0009440A105B105F1F48091170180FD1AC067
:1014F000EE3F8AE0F80789F587E797E791838083D5
:10150000809160008093510588E19BE00FB6F894CC
:10151000A895809360000FBE9093600067CEEEEFB9
:10152000FAE0D5CF808191818737974709F05ECE69
:10153000A89580916000886180936000809151053A
:1015400080936000EE3F2AE0F20789F08091FE0A66
:101550009091FF0A9183808349CE80819181873762
:10156000980751F29093FF0A8093FE0AC5CF10921C
:10157000FF0A1092FE0A3ACE0E948003DC01129606
:101580000D911C910115110509F4E8CED801ED91DA
:10159000FC910190F081E02DBE016B5E7F4FC80190
:1015A0000995811123CEF80100851185EBCF18161E
:1015B00019060CF41BCED2CEF1E0FF12BECE6DE0C8
:1015C00076E004CF0F920FB68F939F93EF93FF9324
:1015D000809133018D5F8D3708F08D5780933301F3
:1015E000E4E3F1E080818E4F808391819F4F91836E
:1015F00082818F4F828383818F4F8383E8E3F1E081
:1016000080818F5F808381818F4F818382818F4F23
:10161000828383818F4F83838FB18F6066991C9BF8
:1016200088278F3681F480913201981B963068F0BC
:10163000E0E0F8E087E78083818388E180936000C1
:10164000F0936000FFCF90933201FF91EF919F9153
:101650008F910FBE0F9018951F920F920FB60F9299
:1016600011248F939F9383E298E090939900809345
:10167000980081E0809340019F918F910F900FBE61
:101680000F901F901895EF92FF920F931F93CF9397
:10169000DF93F82E192FE62E042F81E0860F880F96
:1016A0000E94150483E00E941504CF2DD12FEC0E6B
:1016B000FD2EF11CCE15DF05B9F007FF13C0FE01AA
:1016C00084910E941504182F80E00E941504812344
:1016D00021968111EFCFDF91CF911F910F91FF9054
:1016E000EF9008958881EDCF81E0F5CFE3E6F5E056
:1016F0001382128288EE93E0A0E0B0E084839583A9
:10170000A683B78383E291E0918380838FEF9FEF7D
:10171000958784870895789483E084BD83E085BDB0
:1017200081E080936E00E1E8F0E083E08083E0E810
:1017300081E08083E1E983E08083E0E981E08083E8
:10174000E1EC87E08083E3EC81E08083E0EC82E001
:101750008083E2EC81E08083EAE787E08083806831
:101760008083109262051092520510925405809168
:10177000D70081608093D70080EA8093D80089B534
:10178000806189BD89B5826089BD09B400FEFDCF45
:1017900081E090E00E9438058091D8008F7C8061C4
:1017A0008093D8008091E000807F8093E00080915A
:1017B000E1008E7E8093E1008DE08093E200559AF7
:1017C000209A81EC80937C0081EF85B987EE84B903
:1017D00082E38BB982EF8AB9769A6E9880EF81BBEB
:1017E00010BA80E58CBD81E08DBD0E944C055F9AEA
:1017F0000E944C055C98ECEAF5E085918EBD0000F6
:101800000DB407FEFDCFE93BC1F75C9A81E88093F8
:10181000640081E0809365006AE089EB95E00E94B6
:1018200030082FB7F89483E298E090939900809362
:10183000980093E0909390008BE180939100109238
:1018400095001092940080917100826080937100E5
:101850002FBF909300015E9AE4E1F0E084E49CEFF6
:1018600060EF7FEF2591359155914591285135498C
:1018700009F4CA0180933E0190933F01259135916F
:10188000559145912851354909F4BA0160933C01BD
:1018900070933D0159988BEA0E943105599A109234
:1018A00049051092480510924705109246054CE4F0
:1018B000442E48E3542E612C5E98F89480914001A8
:1018C000811109C083B7816083BF7894889583B7FD
:1018D0008E7F83BFF2CF109240017894C0914C0567
:1018E0002FE741E050E061E070E086EC94E00E9478
:1018F000990662E085EC95E00E9430082FEF47E002
:1019000051E061E070E086E491E00E94990662E0B7
:1019100083EC95E00E94300881E0CC2331F0809187
:1019200041018F5F8093410180E080934C055E9A76
:1019300080914101882399F0815080934101C091A9
:101940004401C09345010E94E404809344019091B6
:101950004B05992309F485C0933009F484C1809123
:101960004B05811176C0C0914C05CC0F91E0E6E4A7
:10197000F1E091119FEF8FEF919391939193919358
:101980008150D0F7C33040F41092490510924805B9
:10199000109247051092460564E67AEA83E00E94B9
:1019A00025050E941305D82F0E940D05DD2399F00F
:1019B000882389F0CC2ED12C22E0A22E06E6E02E40
:1019C0000AEAF02E03E0282F4D2F70E060E090E04F
:1019D00080E00E94F60700914A05C0900301D09074
:1019E0000401E09005011091020180900101912C09
:1019F0008E2DB6010E9425050E941305D82F0E9446
:101A00000D0590E88916910424F5612F70E060348B
:101A10007105FCF4A4014D0F511D452BD1F0AB0114
:101A2000480F511D452BA9F02C2F30E0A3E00A9F51
:101A3000200D311D11240E2D760192E0E90EF11CCE
:101A4000011D93E0A92E6901282F4D2FC4010E948A
:101A5000F60780E090E0892B09F42ECF0E94000069
:101A60002BCF2091420130914301C9016AE070E01F
:101A70000E946D0E892B51F480914A0590910601C8
:101A8000891708F08DC08F5F80934A052F5F3F4F05
:101A9000309343012093420180E20E940205882393
:101AA00049F010920A01109208011092070181E09A
:101AB0008093090180E10E940205882349F0109279
:101AC0000A0181E080930801109207011092090138
:101AD00080E40E940205882349F081E080930A0196
:101AE00010920801109207011092090180E80E94EB
:101AF0000205882349F010920A011092080181E042
:101B0000809307011092090188E00E940205882352
:101B100009F449C010920B0180910901882399F0C2
:101B200080E20E9402058111ABC080910B018823E5
:101B300009F43DC086E592ECA0E080930301909308
:101B40000401A093050180910A01882391F080E4AB
:101B50000E9402058111A3C080910B01882379F1B5
:101B600080E69AEEA2E08093030190930401A09393
:101B7000050180910801882381F180E10E9402051E
:101B800081119CC080910B01882309F182E69AE4BF
:101B9000A3E08093030190930401A09305011DC06D
:101BA00010924A0573CF81E080930B01B5CF88E492
:101BB00098E0A0E0C2CF82E596E8A0E0BECF80E545
:101BC0009EE6A0E0D0CF84E594EAA0E0CCCF40929E
:101BD00003015092040160920501809103019091EC
:101BE0000401A09105018E3420E59207A105D9F0EA
:101BF0008A3522E8920721E0A207A9F08C352AEF66
:101C0000920721E0A20779F0823526E89207A10524
:101C100051F08E3522E7920722E0A20721F08435A9
:101C2000944AA105D1F489E08093060180910701CF
:101C3000882309F494CE80910B01882381F088E5F4
:101C400092E2A1E08093030190930401A093050127
:101C500086CE8EE490E5A0E09CCF87E0E5CF8AE4D5
:101C600090E2A0E0EFCFC3FD03C083FD10924B05CF
:101C7000C2FD75CE82FF73CE81E080934B056FCE9F
:101C800080E20E940205882309F45DCF80910B0158
:101C9000882309F490CF8CE59AEFA1E04ECF80E441
:101CA0000E940205882309F464CF80910B018823E8
:101CB00009F489CF8EE592E7A2E055CF80E10E943A
:101CC0000205882309F489CF80910B01882309F448
:101CD000C0CF8AE592E8A1E05CCF97FB072E16F40F
:101CE000009407D077FD09D00E94810E07FC05D033
:101CF0003EF4909581959F4F0895709561957F4F23
:101D00000895AA1BBB1B51E107C0AA1FBB1FA61742
:101D1000B70710F0A61BB70B881F991F5A95A9F794
:101D200080959095BC01CD010895EE0FFF1F0590A1
:0A1D3000F491E02D0994F894FFCF20
:101D3A000140004C3800070001000001FFFFFFFFCF
:101D4A0000E100000000000000C1808100000000E6
:101D5A0000000094035005B503AA03FB03B903D797
:021D6A00030074
:00000001FF
